{
  "_format": "hh-sol-artifact-1",
  "contractName": "NFT",
  "sourceName": "contracts/nftfull.sol",
  "abi": [
    {
      "inputs": [
        {
          "internalType": "string",
          "name": "_name",
          "type": "string"
        },
        {
          "internalType": "string",
          "name": "_symbol",
          "type": "string"
        },
        {
          "internalType": "string",
          "name": "_initBaseURI",
          "type": "string"
        },
        {
          "internalType": "string",
          "name": "_initNotRevealedUri",
          "type": "string"
        }
      ],
      "stateMutability": "nonpayable",
      "type": "constructor"
    },
    {
      "anonymous": false,
      "inputs": [
        {
          "indexed": true,
          "internalType": "address",
          "name": "owner",
          "type": "address"
        },
        {
          "indexed": true,
          "internalType": "address",
          "name": "approved",
          "type": "address"
        },
        {
          "indexed": true,
          "internalType": "uint256",
          "name": "tokenId",
          "type": "uint256"
        }
      ],
      "name": "Approval",
      "type": "event"
    },
    {
      "anonymous": false,
      "inputs": [
        {
          "indexed": true,
          "internalType": "address",
          "name": "owner",
          "type": "address"
        },
        {
          "indexed": true,
          "internalType": "address",
          "name": "operator",
          "type": "address"
        },
        {
          "indexed": false,
          "internalType": "bool",
          "name": "approved",
          "type": "bool"
        }
      ],
      "name": "ApprovalForAll",
      "type": "event"
    },
    {
      "anonymous": false,
      "inputs": [
        {
          "indexed": true,
          "internalType": "address",
          "name": "previousOwner",
          "type": "address"
        },
        {
          "indexed": true,
          "internalType": "address",
          "name": "newOwner",
          "type": "address"
        }
      ],
      "name": "OwnershipTransferred",
      "type": "event"
    },
    {
      "anonymous": false,
      "inputs": [
        {
          "indexed": true,
          "internalType": "address",
          "name": "from",
          "type": "address"
        },
        {
          "indexed": true,
          "internalType": "address",
          "name": "to",
          "type": "address"
        },
        {
          "indexed": true,
          "internalType": "uint256",
          "name": "tokenId",
          "type": "uint256"
        }
      ],
      "name": "Transfer",
      "type": "event"
    },
    {
      "inputs": [
        {
          "internalType": "address",
          "name": "",
          "type": "address"
        }
      ],
      "name": "addressMintedBalance",
      "outputs": [
        {
          "internalType": "uint256",
          "name": "",
          "type": "uint256"
        }
      ],
      "stateMutability": "view",
      "type": "function"
    },
    {
      "inputs": [
        {
          "internalType": "address",
          "name": "to",
          "type": "address"
        },
        {
          "internalType": "uint256",
          "name": "tokenId",
          "type": "uint256"
        }
      ],
      "name": "approve",
      "outputs": [],
      "stateMutability": "nonpayable",
      "type": "function"
    },
    {
      "inputs": [
        {
          "internalType": "address",
          "name": "owner",
          "type": "address"
        }
      ],
      "name": "balanceOf",
      "outputs": [
        {
          "internalType": "uint256",
          "name": "",
          "type": "uint256"
        }
      ],
      "stateMutability": "view",
      "type": "function"
    },
    {
      "inputs": [],
      "name": "baseExtension",
      "outputs": [
        {
          "internalType": "string",
          "name": "",
          "type": "string"
        }
      ],
      "stateMutability": "view",
      "type": "function"
    },
    {
      "inputs": [],
      "name": "baseURI",
      "outputs": [
        {
          "internalType": "string",
          "name": "",
          "type": "string"
        }
      ],
      "stateMutability": "view",
      "type": "function"
    },
    {
      "inputs": [],
      "name": "cost",
      "outputs": [
        {
          "internalType": "uint256",
          "name": "",
          "type": "uint256"
        }
      ],
      "stateMutability": "view",
      "type": "function"
    },
    {
      "inputs": [],
      "name": "devReserve",
      "outputs": [
        {
          "internalType": "uint256",
          "name": "",
          "type": "uint256"
        }
      ],
      "stateMutability": "view",
      "type": "function"
    },
    {
      "inputs": [
        {
          "internalType": "uint256",
          "name": "tokenId",
          "type": "uint256"
        }
      ],
      "name": "getApproved",
      "outputs": [
        {
          "internalType": "address",
          "name": "",
          "type": "address"
        }
      ],
      "stateMutability": "view",
      "type": "function"
    },
    {
      "inputs": [
        {
          "internalType": "address",
          "name": "owner",
          "type": "address"
        },
        {
          "internalType": "address",
          "name": "operator",
          "type": "address"
        }
      ],
      "name": "isApprovedForAll",
      "outputs": [
        {
          "internalType": "bool",
          "name": "",
          "type": "bool"
        }
      ],
      "stateMutability": "view",
      "type": "function"
    },
    {
      "inputs": [
        {
          "internalType": "address",
          "name": "_user",
          "type": "address"
        }
      ],
      "name": "isWhitelisted",
      "outputs": [
        {
          "internalType": "bool",
          "name": "",
          "type": "bool"
        }
      ],
      "stateMutability": "view",
      "type": "function"
    },
    {
      "inputs": [],
      "name": "maxMintAmount",
      "outputs": [
        {
          "internalType": "uint256",
          "name": "",
          "type": "uint256"
        }
      ],
      "stateMutability": "view",
      "type": "function"
    },
    {
      "inputs": [],
      "name": "maxSupply",
      "outputs": [
        {
          "internalType": "uint256",
          "name": "",
          "type": "uint256"
        }
      ],
      "stateMutability": "view",
      "type": "function"
    },
    {
      "inputs": [
        {
          "internalType": "uint256",
          "name": "_mintAmount",
          "type": "uint256"
        }
      ],
      "name": "mint",
      "outputs": [],
      "stateMutability": "payable",
      "type": "function"
    },
    {
      "inputs": [],
      "name": "name",
      "outputs": [
        {
          "internalType": "string",
          "name": "",
          "type": "string"
        }
      ],
      "stateMutability": "view",
      "type": "function"
    },
    {
      "inputs": [],
      "name": "nftPerAddressLimit",
      "outputs": [
        {
          "internalType": "uint256",
          "name": "",
          "type": "uint256"
        }
      ],
      "stateMutability": "view",
      "type": "function"
    },
    {
      "inputs": [],
      "name": "notRevealedUri",
      "outputs": [
        {
          "internalType": "string",
          "name": "",
          "type": "string"
        }
      ],
      "stateMutability": "view",
      "type": "function"
    },
    {
      "inputs": [],
      "name": "onlyWhitelisted",
      "outputs": [
        {
          "internalType": "bool",
          "name": "",
          "type": "bool"
        }
      ],
      "stateMutability": "view",
      "type": "function"
    },
    {
      "inputs": [],
      "name": "owner",
      "outputs": [
        {
          "internalType": "address",
          "name": "",
          "type": "address"
        }
      ],
      "stateMutability": "view",
      "type": "function"
    },
    {
      "inputs": [
        {
          "internalType": "uint256",
          "name": "tokenId",
          "type": "uint256"
        }
      ],
      "name": "ownerOf",
      "outputs": [
        {
          "internalType": "address",
          "name": "",
          "type": "address"
        }
      ],
      "stateMutability": "view",
      "type": "function"
    },
    {
      "inputs": [],
      "name": "renounceOwnership",
      "outputs": [],
      "stateMutability": "nonpayable",
      "type": "function"
    },
    {
      "inputs": [],
      "name": "reveal",
      "outputs": [],
      "stateMutability": "nonpayable",
      "type": "function"
    },
    {
      "inputs": [],
      "name": "revealed",
      "outputs": [
        {
          "internalType": "bool",
          "name": "",
          "type": "bool"
        }
      ],
      "stateMutability": "view",
      "type": "function"
    },
    {
      "inputs": [
        {
          "internalType": "address",
          "name": "from",
          "type": "address"
        },
        {
          "internalType": "address",
          "name": "to",
          "type": "address"
        },
        {
          "internalType": "uint256",
          "name": "tokenId",
          "type": "uint256"
        }
      ],
      "name": "safeTransferFrom",
      "outputs": [],
      "stateMutability": "nonpayable",
      "type": "function"
    },
    {
      "inputs": [
        {
          "internalType": "address",
          "name": "from",
          "type": "address"
        },
        {
          "internalType": "address",
          "name": "to",
          "type": "address"
        },
        {
          "internalType": "uint256",
          "name": "tokenId",
          "type": "uint256"
        },
        {
          "internalType": "bytes",
          "name": "_data",
          "type": "bytes"
        }
      ],
      "name": "safeTransferFrom",
      "outputs": [],
      "stateMutability": "nonpayable",
      "type": "function"
    },
    {
      "inputs": [],
      "name": "saleIsActive",
      "outputs": [
        {
          "internalType": "bool",
          "name": "",
          "type": "bool"
        }
      ],
      "stateMutability": "view",
      "type": "function"
    },
    {
      "inputs": [
        {
          "internalType": "address",
          "name": "operator",
          "type": "address"
        },
        {
          "internalType": "bool",
          "name": "approved",
          "type": "bool"
        }
      ],
      "name": "setApprovalForAll",
      "outputs": [],
      "stateMutability": "nonpayable",
      "type": "function"
    },
    {
      "inputs": [
        {
          "internalType": "string",
          "name": "_newBaseExtension",
          "type": "string"
        }
      ],
      "name": "setBaseExtension",
      "outputs": [],
      "stateMutability": "nonpayable",
      "type": "function"
    },
    {
      "inputs": [
        {
          "internalType": "string",
          "name": "_newBaseURI",
          "type": "string"
        }
      ],
      "name": "setBaseURI",
      "outputs": [],
      "stateMutability": "nonpayable",
      "type": "function"
    },
    {
      "inputs": [
        {
          "internalType": "uint256",
          "name": "_newCost",
          "type": "uint256"
        }
      ],
      "name": "setCost",
      "outputs": [],
      "stateMutability": "nonpayable",
      "type": "function"
    },
    {
      "inputs": [
        {
          "internalType": "uint256",
          "name": "_limit",
          "type": "uint256"
        }
      ],
      "name": "setNftPerAddressLimit",
      "outputs": [],
      "stateMutability": "nonpayable",
      "type": "function"
    },
    {
      "inputs": [
        {
          "internalType": "string",
          "name": "_notRevealedURI",
          "type": "string"
        }
      ],
      "name": "setNotRevealedURI",
      "outputs": [],
      "stateMutability": "nonpayable",
      "type": "function"
    },
    {
      "inputs": [
        {
          "internalType": "bool",
          "name": "_state",
          "type": "bool"
        }
      ],
      "name": "setOnlyWhitelisted",
      "outputs": [],
      "stateMutability": "nonpayable",
      "type": "function"
    },
    {
      "inputs": [
        {
          "internalType": "uint256",
          "name": "_newmaxMintAmount",
          "type": "uint256"
        }
      ],
      "name": "setmaxMintAmount",
      "outputs": [],
      "stateMutability": "nonpayable",
      "type": "function"
    },
    {
      "inputs": [
        {
          "internalType": "bytes4",
          "name": "interfaceId",
          "type": "bytes4"
        }
      ],
      "name": "supportsInterface",
      "outputs": [
        {
          "internalType": "bool",
          "name": "",
          "type": "bool"
        }
      ],
      "stateMutability": "view",
      "type": "function"
    },
    {
      "inputs": [],
      "name": "symbol",
      "outputs": [
        {
          "internalType": "string",
          "name": "",
          "type": "string"
        }
      ],
      "stateMutability": "view",
      "type": "function"
    },
    {
      "inputs": [],
      "name": "toggleSaleState",
      "outputs": [],
      "stateMutability": "nonpayable",
      "type": "function"
    },
    {
      "inputs": [
        {
          "internalType": "uint256",
          "name": "index",
          "type": "uint256"
        }
      ],
      "name": "tokenByIndex",
      "outputs": [
        {
          "internalType": "uint256",
          "name": "",
          "type": "uint256"
        }
      ],
      "stateMutability": "view",
      "type": "function"
    },
    {
      "inputs": [
        {
          "internalType": "address",
          "name": "owner",
          "type": "address"
        },
        {
          "internalType": "uint256",
          "name": "index",
          "type": "uint256"
        }
      ],
      "name": "tokenOfOwnerByIndex",
      "outputs": [
        {
          "internalType": "uint256",
          "name": "",
          "type": "uint256"
        }
      ],
      "stateMutability": "view",
      "type": "function"
    },
    {
      "inputs": [
        {
          "internalType": "uint256",
          "name": "tokenId",
          "type": "uint256"
        }
      ],
      "name": "tokenURI",
      "outputs": [
        {
          "internalType": "string",
          "name": "",
          "type": "string"
        }
      ],
      "stateMutability": "view",
      "type": "function"
    },
    {
      "inputs": [],
      "name": "totalSupply",
      "outputs": [
        {
          "internalType": "uint256",
          "name": "",
          "type": "uint256"
        }
      ],
      "stateMutability": "view",
      "type": "function"
    },
    {
      "inputs": [
        {
          "internalType": "address",
          "name": "from",
          "type": "address"
        },
        {
          "internalType": "address",
          "name": "to",
          "type": "address"
        },
        {
          "internalType": "uint256",
          "name": "tokenId",
          "type": "uint256"
        }
      ],
      "name": "transferFrom",
      "outputs": [],
      "stateMutability": "nonpayable",
      "type": "function"
    },
    {
      "inputs": [
        {
          "internalType": "address",
          "name": "newOwner",
          "type": "address"
        }
      ],
      "name": "transferOwnership",
      "outputs": [],
      "stateMutability": "nonpayable",
      "type": "function"
    },
    {
      "inputs": [
        {
          "internalType": "address",
          "name": "_owner",
          "type": "address"
        }
      ],
      "name": "walletOfOwner",
      "outputs": [
        {
          "internalType": "uint256[]",
          "name": "",
          "type": "uint256[]"
        }
      ],
      "stateMutability": "view",
      "type": "function"
    },
    {
      "inputs": [],
      "name": "whitelistCost",
      "outputs": [
        {
          "internalType": "uint256",
          "name": "",
          "type": "uint256"
        }
      ],
      "stateMutability": "view",
      "type": "function"
    },
    {
      "inputs": [
        {
          "internalType": "address[]",
          "name": "_users",
          "type": "address[]"
        }
      ],
      "name": "whitelistUsers",
      "outputs": [],
      "stateMutability": "nonpayable",
      "type": "function"
    },
    {
      "inputs": [
        {
          "internalType": "uint256",
          "name": "",
          "type": "uint256"
        }
      ],
      "name": "whitelistedAddresses",
      "outputs": [
        {
          "internalType": "address",
          "name": "",
          "type": "address"
        }
      ],
      "stateMutability": "view",
      "type": "function"
    },
    {
      "inputs": [],
      "name": "withdraw",
      "outputs": [],
      "stateMutability": "payable",
      "type": "function"
    }
  ],
  "bytecode": "0x60806040526040518060400160405280600581526020017f2e6a736f6e000000000000000000000000000000000000000000000000000000815250600c908051906020019062000051929190620007cf565b5067016345785d8a0000600e5567016345785d8a0000600f55611e616010556032601155601460125560406013556001601460006101000a81548160ff0219169083151502179055506001601460016101000a81548160ff0219169083151502179055506000601460026101000a81548160ff02191690831515021790555073ab8483f64d9c6d1ecf9b849ae677dd3315835cb2601760006101000a81548173ffffffffffffffffffffffffffffffffffffffff021916908373ffffffffffffffffffffffffffffffffffffffff160217905550734b20993bc481177ec7e8f571cecae8a9e22c02db601860006101000a81548173ffffffffffffffffffffffffffffffffffffffff021916908373ffffffffffffffffffffffffffffffffffffffff1602179055507378731d3ca6b7e34ac0f824c42a7cc18a495cabab601960006101000a81548173ffffffffffffffffffffffffffffffffffffffff021916908373ffffffffffffffffffffffffffffffffffffffff16021790555073617f2e2fd72fd9d5503197092ac168c91465e7f2601a60006101000a81548173ffffffffffffffffffffffffffffffffffffffff021916908373ffffffffffffffffffffffffffffffffffffffff1602179055507317f6ad8ef982297579c203069c1dbffe4348c372601b60006101000a81548173ffffffffffffffffffffffffffffffffffffffff021916908373ffffffffffffffffffffffffffffffffffffffff160217905550735c6b0f7bf3e7ce046039bd8fabdfd3f9f5021678601c60006101000a81548173ffffffffffffffffffffffffffffffffffffffff021916908373ffffffffffffffffffffffffffffffffffffffff1602179055507303c6fced478cbbc9a4fab34ef9f40767739d1ff7601d60006101000a81548173ffffffffffffffffffffffffffffffffffffffff021916908373ffffffffffffffffffffffffffffffffffffffff160217905550731ae0ea34a72d944a8c7603ffb3ec30a6669e454c601e60006101000a81548173ffffffffffffffffffffffffffffffffffffffff021916908373ffffffffffffffffffffffffffffffffffffffff160217905550730a098eda01ce92ff4a4ccb7a4fffb5a43ebc70dc601f60006101000a81548173ffffffffffffffffffffffffffffffffffffffff021916908373ffffffffffffffffffffffffffffffffffffffff16021790555073ca35b7d915458ef540ade6068dfe2f44e8fa733c602060006101000a81548173ffffffffffffffffffffffffffffffffffffffff021916908373ffffffffffffffffffffffffffffffffffffffff1602179055507314723a09acff6d2a60dcdf7aa4aff308fddc160c602160006101000a81548173ffffffffffffffffffffffffffffffffffffffff021916908373ffffffffffffffffffffffffffffffffffffffff160217905550734b0897b0513fdc7c541b6d9d7e929c4e5364d2db602260006101000a81548173ffffffffffffffffffffffffffffffffffffffff021916908373ffffffffffffffffffffffffffffffffffffffff160217905550348015620004d957600080fd5b5060405162006555380380620065558339818101604052810190620004ff9190620008f1565b8383816000908051906020019062000519929190620007cf565b50806001908051906020019062000532929190620007cf565b50505062000555620005496200058160201b60201c565b6200058960201b60201c565b62000566826200064f60201b60201c565b6200057781620006fa60201b60201c565b5050505062000bb4565b600033905090565b6000600a60009054906101000a900473ffffffffffffffffffffffffffffffffffffffff16905081600a60006101000a81548173ffffffffffffffffffffffffffffffffffffffff021916908373ffffffffffffffffffffffffffffffffffffffff1602179055508173ffffffffffffffffffffffffffffffffffffffff168173ffffffffffffffffffffffffffffffffffffffff167f8be0079c531659141344cd1fd0a4f28419497f9722a3daafe3b4186f6b6457e060405160405180910390a35050565b6200065f6200058160201b60201c565b73ffffffffffffffffffffffffffffffffffffffff1662000685620007a560201b60201c565b73ffffffffffffffffffffffffffffffffffffffff1614620006de576040517f08c379a0000000000000000000000000000000000000000000000000000000008152600401620006d590620009e8565b60405180910390fd5b80600b9080519060200190620006f6929190620007cf565b5050565b6200070a6200058160201b60201c565b73ffffffffffffffffffffffffffffffffffffffff1662000730620007a560201b60201c565b73ffffffffffffffffffffffffffffffffffffffff161462000789576040517f08c379a00000000000000000000000000000000000000000000000000000000081526004016200078090620009e8565b60405180910390fd5b80600d9080519060200190620007a1929190620007cf565b5050565b6000600a60009054906101000a900473ffffffffffffffffffffffffffffffffffffffff16905090565b828054620007dd9062000ab0565b90600052602060002090601f0160209004810192826200080157600085556200084d565b82601f106200081c57805160ff19168380011785556200084d565b828001600101855582156200084d579182015b828111156200084c5782518255916020019190600101906200082f565b5b5090506200085c919062000860565b5090565b5b808211156200087b57600081600090555060010162000861565b5090565b600062000896620008908462000a33565b62000a0a565b905082815260208101848484011115620008af57600080fd5b620008bc84828562000a7a565b509392505050565b600082601f830112620008d657600080fd5b8151620008e88482602086016200087f565b91505092915050565b600080600080608085870312156200090857600080fd5b600085015167ffffffffffffffff8111156200092357600080fd5b6200093187828801620008c4565b945050602085015167ffffffffffffffff8111156200094f57600080fd5b6200095d87828801620008c4565b935050604085015167ffffffffffffffff8111156200097b57600080fd5b6200098987828801620008c4565b925050606085015167ffffffffffffffff811115620009a757600080fd5b620009b587828801620008c4565b91505092959194509250565b6000620009d060208362000a69565b9150620009dd8262000b8b565b602082019050919050565b6000602082019050818103600083015262000a0381620009c1565b9050919050565b600062000a1662000a29565b905062000a24828262000ae6565b919050565b6000604051905090565b600067ffffffffffffffff82111562000a515762000a5062000b4b565b5b62000a5c8262000b7a565b9050602081019050919050565b600082825260208201905092915050565b60005b8381101562000a9a57808201518184015260208101905062000a7d565b8381111562000aaa576000848401525b50505050565b6000600282049050600182168062000ac957607f821691505b6020821081141562000ae05762000adf62000b1c565b5b50919050565b62000af18262000b7a565b810181811067ffffffffffffffff8211171562000b135762000b1262000b4b565b5b80604052505050565b7f4e487b7100000000000000000000000000000000000000000000000000000000600052602260045260246000fd5b7f4e487b7100000000000000000000000000000000000000000000000000000000600052604160045260246000fd5b6000601f19601f8301169050919050565b7f4f776e61626c653a2063616c6c6572206973206e6f7420746865206f776e6572600082015250565b6159918062000bc46000396000f3fe6080604052600436106102885760003560e01c8063715018a61161015a578063c87b56dd116100c1578063e985e9c51161007a578063e985e9c5146109b4578063eb8d2444146109f1578063edec5f2714610a1c578063f2c4ce1e14610a45578063f2fde38b14610a6e578063fcd2a42714610a9757610288565b8063c87b56dd146108b8578063d0eb26b0146108f5578063d5abeb011461091e578063da3ef23f14610949578063daaeec8614610972578063e7b99ec71461098957610288565b8063a22cb46511610113578063a22cb465146107bc578063a475b5dd146107e5578063b88d4fde146107fc578063ba4e5c4914610825578063ba7d2c7614610862578063c66828621461088d57610288565b8063715018a6146106df5780637f00c7a6146106f65780638da5cb5b1461071f57806395d89b411461074a5780639c70b51214610775578063a0712d68146107a057610288565b80633af32abf116101fe5780634f6ccce7116101b75780634f6ccce7146105a957806351830227146105e657806355f804b3146106115780636352211e1461063a5780636c0360eb1461067757806370a08231146106a257610288565b80633af32abf146104aa5780633c952764146104e75780633ccfd60b1461051057806342842e0e1461051a578063438b63001461054357806344a0d68a1461058057610288565b806313faede61161025057806313faede61461038657806318160ddd146103b157806318cae269146103dc578063239c70ae1461041957806323b872dd146104445780632f745c591461046d57610288565b806301ffc9a71461028d57806306fdde03146102ca578063081812fc146102f5578063081c8c4414610332578063095ea7b31461035d575b600080fd5b34801561029957600080fd5b506102b460048036038101906102af91906143c4565b610ac2565b6040516102c19190614ab1565b60405180910390f35b3480156102d657600080fd5b506102df610b3c565b6040516102ec9190614acc565b60405180910390f35b34801561030157600080fd5b5061031c60048036038101906103179190614457565b610bce565b6040516103299190614a28565b60405180910390f35b34801561033e57600080fd5b50610347610c53565b6040516103549190614acc565b60405180910390f35b34801561036957600080fd5b50610384600480360381019061037f919061431a565b610ce1565b005b34801561039257600080fd5b5061039b610df9565b6040516103a89190614e0e565b60405180910390f35b3480156103bd57600080fd5b506103c6610dff565b6040516103d39190614e0e565b60405180910390f35b3480156103e857600080fd5b5061040360048036038101906103fe91906141af565b610e0c565b6040516104109190614e0e565b60405180910390f35b34801561042557600080fd5b5061042e610e24565b60405161043b9190614e0e565b60405180910390f35b34801561045057600080fd5b5061046b60048036038101906104669190614214565b610e2a565b005b34801561047957600080fd5b50610494600480360381019061048f919061431a565b610e8a565b6040516104a19190614e0e565b60405180910390f35b3480156104b657600080fd5b506104d160048036038101906104cc91906141af565b610f2f565b6040516104de9190614ab1565b60405180910390f35b3480156104f357600080fd5b5061050e6004803603810190610509919061439b565b611004565b005b61051861109d565b005b34801561052657600080fd5b50610541600480360381019061053c9190614214565b61198b565b005b34801561054f57600080fd5b5061056a600480360381019061056591906141af565b6119ab565b6040516105779190614a8f565b60405180910390f35b34801561058c57600080fd5b506105a760048036038101906105a29190614457565b611aa5565b005b3480156105b557600080fd5b506105d060048036038101906105cb9190614457565b611b2b565b6040516105dd9190614e0e565b60405180910390f35b3480156105f257600080fd5b506105fb611bc2565b6040516106089190614ab1565b60405180910390f35b34801561061d57600080fd5b5061063860048036038101906106339190614416565b611bd5565b005b34801561064657600080fd5b50610661600480360381019061065c9190614457565b611c6b565b60405161066e9190614a28565b60405180910390f35b34801561068357600080fd5b5061068c611d1d565b6040516106999190614acc565b60405180910390f35b3480156106ae57600080fd5b506106c960048036038101906106c491906141af565b611dab565b6040516106d69190614e0e565b60405180910390f35b3480156106eb57600080fd5b506106f4611e63565b005b34801561070257600080fd5b5061071d60048036038101906107189190614457565b611eeb565b005b34801561072b57600080fd5b50610734611f71565b6040516107419190614a28565b60405180910390f35b34801561075657600080fd5b5061075f611f9b565b60405161076c9190614acc565b60405180910390f35b34801561078157600080fd5b5061078a61202d565b6040516107979190614ab1565b60405180910390f35b6107ba60048036038101906107b59190614457565b612040565b005b3480156107c857600080fd5b506107e360048036038101906107de91906142de565b6123df565b005b3480156107f157600080fd5b506107fa612560565b005b34801561080857600080fd5b50610823600480360381019061081e9190614263565b6125f9565b005b34801561083157600080fd5b5061084c60048036038101906108479190614457565b61265b565b6040516108599190614a28565b60405180910390f35b34801561086e57600080fd5b5061087761269a565b6040516108849190614e0e565b60405180910390f35b34801561089957600080fd5b506108a26126a0565b6040516108af9190614acc565b60405180910390f35b3480156108c457600080fd5b506108df60048036038101906108da9190614457565b61272e565b6040516108ec9190614acc565b60405180910390f35b34801561090157600080fd5b5061091c60048036038101906109179190614457565b612887565b005b34801561092a57600080fd5b5061093361290d565b6040516109409190614e0e565b60405180910390f35b34801561095557600080fd5b50610970600480360381019061096b9190614416565b612913565b005b34801561097e57600080fd5b506109876129a9565b005b34801561099557600080fd5b5061099e612a51565b6040516109ab9190614e0e565b60405180910390f35b3480156109c057600080fd5b506109db60048036038101906109d691906141d8565b612a57565b6040516109e89190614ab1565b60405180910390f35b3480156109fd57600080fd5b50610a06612aeb565b604051610a139190614ab1565b60405180910390f35b348015610a2857600080fd5b50610a436004803603810190610a3e9190614356565b612afe565b005b348015610a5157600080fd5b50610a6c6004803603810190610a679190614416565b612b9e565b005b348015610a7a57600080fd5b50610a956004803603810190610a9091906141af565b612c34565b005b348015610aa357600080fd5b50610aac612d2c565b604051610ab99190614e0e565b60405180910390f35b60007f780e9d63000000000000000000000000000000000000000000000000000000007bffffffffffffffffffffffffffffffffffffffffffffffffffffffff1916827bffffffffffffffffffffffffffffffffffffffffffffffffffffffff19161480610b355750610b3482612d32565b5b9050919050565b606060008054610b4b90615117565b80601f0160208091040260200160405190810160405280929190818152602001828054610b7790615117565b8015610bc45780601f10610b9957610100808354040283529160200191610bc4565b820191906000526020600020905b815481529060010190602001808311610ba757829003601f168201915b5050505050905090565b6000610bd982612e14565b610c18576040517f08c379a0000000000000000000000000000000000000000000000000000000008152600401610c0f90614cae565b60405180910390fd5b6004600083815260200190815260200160002060009054906101000a900473ffffffffffffffffffffffffffffffffffffffff169050919050565b600d8054610c6090615117565b80601f0160208091040260200160405190810160405280929190818152602001828054610c8c90615117565b8015610cd95780601f10610cae57610100808354040283529160200191610cd9565b820191906000526020600020905b815481529060010190602001808311610cbc57829003601f168201915b505050505081565b6000610cec82611c6b565b90508073ffffffffffffffffffffffffffffffffffffffff168373ffffffffffffffffffffffffffffffffffffffff161415610d5d576040517f08c379a0000000000000000000000000000000000000000000000000000000008152600401610d5490614d4e565b60405180910390fd5b8073ffffffffffffffffffffffffffffffffffffffff16610d7c612e80565b73ffffffffffffffffffffffffffffffffffffffff161480610dab5750610daa81610da5612e80565b612a57565b5b610dea576040517f08c379a0000000000000000000000000000000000000000000000000000000008152600401610de190614bee565b60405180910390fd5b610df48383612e88565b505050565b600e5481565b6000600880549050905090565b60166020528060005260406000206000915090505481565b60115481565b610e3b610e35612e80565b82612f41565b610e7a576040517f08c379a0000000000000000000000000000000000000000000000000000000008152600401610e7190614d8e565b60405180910390fd5b610e8583838361301f565b505050565b6000610e9583611dab565b8210610ed6576040517f08c379a0000000000000000000000000000000000000000000000000000000008152600401610ecd90614aee565b60405180910390fd5b600660008473ffffffffffffffffffffffffffffffffffffffff1673ffffffffffffffffffffffffffffffffffffffff168152602001908152602001600020600083815260200190815260200160002054905092915050565b600080600090505b601580549050811015610ff9578273ffffffffffffffffffffffffffffffffffffffff1660158281548110610f95577f4e487b7100000000000000000000000000000000000000000000000000000000600052603260045260246000fd5b9060005260206000200160009054906101000a900473ffffffffffffffffffffffffffffffffffffffff1673ffffffffffffffffffffffffffffffffffffffff161415610fe6576001915050610fff565b8080610ff19061517a565b915050610f37565b50600090505b919050565b61100c612e80565b73ffffffffffffffffffffffffffffffffffffffff1661102a611f71565b73ffffffffffffffffffffffffffffffffffffffff1614611080576040517f08c379a000000000000000000000000000000000000000000000000000000000815260040161107790614cce565b60405180910390fd5b80601460026101000a81548160ff02191690831515021790555050565b6110a5612e80565b73ffffffffffffffffffffffffffffffffffffffff166110c3611f71565b73ffffffffffffffffffffffffffffffffffffffff1614611119576040517f08c379a000000000000000000000000000000000000000000000000000000000815260040161111090614cce565b60405180910390fd5b6000601760009054906101000a900473ffffffffffffffffffffffffffffffffffffffff1673ffffffffffffffffffffffffffffffffffffffff16620186a0614650476111669190614fd3565b6111709190614fa2565b60405161117c90614a13565b60006040518083038185875af1925050503d80600081146111b9576040519150601f19603f3d011682016040523d82523d6000602084013e6111be565b606091505b50509050806111cc57600080fd5b6000601860009054906101000a900473ffffffffffffffffffffffffffffffffffffffff1673ffffffffffffffffffffffffffffffffffffffff16620186a0613926476112199190614fd3565b6112239190614fa2565b60405161122f90614a13565b60006040518083038185875af1925050503d806000811461126c576040519150601f19603f3d011682016040523d82523d6000602084013e611271565b606091505b505090508061127f57600080fd5b6000601960009054906101000a900473ffffffffffffffffffffffffffffffffffffffff1673ffffffffffffffffffffffffffffffffffffffff16620186a06142fe476112cc9190614fd3565b6112d69190614fa2565b6040516112e290614a13565b60006040518083038185875af1925050503d806000811461131f576040519150601f19603f3d011682016040523d82523d6000602084013e611324565b606091505b505090508061133257600080fd5b6000601a60009054906101000a900473ffffffffffffffffffffffffffffffffffffffff1673ffffffffffffffffffffffffffffffffffffffff16620186a06150dc4761137f9190614fd3565b6113899190614fa2565b60405161139590614a13565b60006040518083038185875af1925050503d80600081146113d2576040519150601f19603f3d011682016040523d82523d6000602084013e6113d7565b606091505b50509050806113e557600080fd5b6000601b60009054906101000a900473ffffffffffffffffffffffffffffffffffffffff1673ffffffffffffffffffffffffffffffffffffffff16620186a06165f4476114329190614fd3565b61143c9190614fa2565b60405161144890614a13565b60006040518083038185875af1925050503d8060008114611485576040519150601f19603f3d011682016040523d82523d6000602084013e61148a565b606091505b505090508061149857600080fd5b6000601c60009054906101000a900473ffffffffffffffffffffffffffffffffffffffff1673ffffffffffffffffffffffffffffffffffffffff16620186a0612dfa476114e59190614fd3565b6114ef9190614fa2565b6040516114fb90614a13565b60006040518083038185875af1925050503d8060008114611538576040519150601f19603f3d011682016040523d82523d6000602084013e61153d565b606091505b505090508061154b57600080fd5b6000601d60009054906101000a900473ffffffffffffffffffffffffffffffffffffffff1673ffffffffffffffffffffffffffffffffffffffff16620186a0612710476115989190614fd3565b6115a29190614fa2565b6040516115ae90614a13565b60006040518083038185875af1925050503d80600081146115eb576040519150601f19603f3d011682016040523d82523d6000602084013e6115f0565b606091505b50509050806115fe57600080fd5b6000601e60009054906101000a900473ffffffffffffffffffffffffffffffffffffffff1673ffffffffffffffffffffffffffffffffffffffff16620186a0610e744761164b9190614fd3565b6116559190614fa2565b60405161166190614a13565b60006040518083038185875af1925050503d806000811461169e576040519150601f19603f3d011682016040523d82523d6000602084013e6116a3565b606091505b50509050806116b157600080fd5b6000601f60009054906101000a900473ffffffffffffffffffffffffffffffffffffffff1673ffffffffffffffffffffffffffffffffffffffff16620186a0610f00476116fe9190614fd3565b6117089190614fa2565b60405161171490614a13565b60006040518083038185875af1925050503d8060008114611751576040519150601f19603f3d011682016040523d82523d6000602084013e611756565b606091505b505090508061176457600080fd5b6000602060009054906101000a900473ffffffffffffffffffffffffffffffffffffffff1673ffffffffffffffffffffffffffffffffffffffff16620186a0610fa0476117b19190614fd3565b6117bb9190614fa2565b6040516117c790614a13565b60006040518083038185875af1925050503d8060008114611804576040519150601f19603f3d011682016040523d82523d6000602084013e611809565b606091505b505090508061181757600080fd5b6000602160009054906101000a900473ffffffffffffffffffffffffffffffffffffffff1673ffffffffffffffffffffffffffffffffffffffff16620186a061104a476118649190614fd3565b61186e9190614fa2565b60405161187a90614a13565b60006040518083038185875af1925050503d80600081146118b7576040519150601f19603f3d011682016040523d82523d6000602084013e6118bc565b606091505b50509050806118ca57600080fd5b6000602260009054906101000a900473ffffffffffffffffffffffffffffffffffffffff1673ffffffffffffffffffffffffffffffffffffffff16620186a06110fe476119179190614fd3565b6119219190614fa2565b60405161192d90614a13565b60006040518083038185875af1925050503d806000811461196a576040519150601f19603f3d011682016040523d82523d6000602084013e61196f565b606091505b505090508061197d57600080fd5b505050505050505050505050565b6119a6838383604051806020016040528060008152506125f9565b505050565b606060006119b883611dab565b905060008167ffffffffffffffff8111156119fc577f4e487b7100000000000000000000000000000000000000000000000000000000600052604160045260246000fd5b604051908082528060200260200182016040528015611a2a5781602001602082028036833780820191505090505b50905060005b82811015611a9a57611a428582610e8a565b828281518110611a7b577f4e487b7100000000000000000000000000000000000000000000000000000000600052603260045260246000fd5b6020026020010181815250508080611a929061517a565b915050611a30565b508092505050919050565b611aad612e80565b73ffffffffffffffffffffffffffffffffffffffff16611acb611f71565b73ffffffffffffffffffffffffffffffffffffffff1614611b21576040517f08c379a0000000000000000000000000000000000000000000000000000000008152600401611b1890614cce565b60405180910390fd5b80600e8190555050565b6000611b35610dff565b8210611b76576040517f08c379a0000000000000000000000000000000000000000000000000000000008152600401611b6d90614dae565b60405180910390fd5b60088281548110611bb0577f4e487b7100000000000000000000000000000000000000000000000000000000600052603260045260246000fd5b90600052602060002001549050919050565b601460019054906101000a900460ff1681565b611bdd612e80565b73ffffffffffffffffffffffffffffffffffffffff16611bfb611f71565b73ffffffffffffffffffffffffffffffffffffffff1614611c51576040517f08c379a0000000000000000000000000000000000000000000000000000000008152600401611c4890614cce565b60405180910390fd5b80600b9080519060200190611c67929190613ec8565b5050565b6000806002600084815260200190815260200160002060009054906101000a900473ffffffffffffffffffffffffffffffffffffffff169050600073ffffffffffffffffffffffffffffffffffffffff168173ffffffffffffffffffffffffffffffffffffffff161415611d14576040517f08c379a0000000000000000000000000000000000000000000000000000000008152600401611d0b90614c2e565b60405180910390fd5b80915050919050565b600b8054611d2a90615117565b80601f0160208091040260200160405190810160405280929190818152602001828054611d5690615117565b8015611da35780601f10611d7857610100808354040283529160200191611da3565b820191906000526020600020905b815481529060010190602001808311611d8657829003601f168201915b505050505081565b60008073ffffffffffffffffffffffffffffffffffffffff168273ffffffffffffffffffffffffffffffffffffffff161415611e1c576040517f08c379a0000000000000000000000000000000000000000000000000000000008152600401611e1390614c0e565b60405180910390fd5b600360008373ffffffffffffffffffffffffffffffffffffffff1673ffffffffffffffffffffffffffffffffffffffff168152602001908152602001600020549050919050565b611e6b612e80565b73ffffffffffffffffffffffffffffffffffffffff16611e89611f71565b73ffffffffffffffffffffffffffffffffffffffff1614611edf576040517f08c379a0000000000000000000000000000000000000000000000000000000008152600401611ed690614cce565b60405180910390fd5b611ee9600061327b565b565b611ef3612e80565b73ffffffffffffffffffffffffffffffffffffffff16611f11611f71565b73ffffffffffffffffffffffffffffffffffffffff1614611f67576040517f08c379a0000000000000000000000000000000000000000000000000000000008152600401611f5e90614cce565b60405180910390fd5b8060118190555050565b6000600a60009054906101000a900473ffffffffffffffffffffffffffffffffffffffff16905090565b606060018054611faa90615117565b80601f0160208091040260200160405190810160405280929190818152602001828054611fd690615117565b80156120235780601f10611ff857610100808354040283529160200191612023565b820191906000526020600020905b81548152906001019060200180831161200657829003601f168201915b5050505050905090565b601460029054906101000a900460ff1681565b60011515601460009054906101000a900460ff16151514612096576040517f08c379a000000000000000000000000000000000000000000000000000000000815260040161208d90614cee565b60405180910390fd5b60006120a0610dff565b9050600082116120e5576040517f08c379a00000000000000000000000000000000000000000000000000000000081526004016120dc90614dee565b60405180910390fd5b60115482111561212a576040517f08c379a000000000000000000000000000000000000000000000000000000000815260040161212190614c6e565b60405180910390fd5b60105482826121399190614f4c565b111561217a576040517f08c379a000000000000000000000000000000000000000000000000000000000815260040161217190614c4e565b60405180910390fd5b612182611f71565b73ffffffffffffffffffffffffffffffffffffffff163373ffffffffffffffffffffffffffffffffffffffff161461234f5760011515601460029054906101000a900460ff16151514156122fe576121d933610f2f565b612218576040517f08c379a000000000000000000000000000000000000000000000000000000000815260040161220f90614dce565b60405180910390fd5b6000601660003373ffffffffffffffffffffffffffffffffffffffff1673ffffffffffffffffffffffffffffffffffffffff168152602001908152602001600020549050601254838261226b9190614f4c565b11156122ac576040517f08c379a00000000000000000000000000000000000000000000000000000000081526004016122a390614b6e565b60405180910390fd5b82600f546122ba9190614fd3565b3410156122fc576040517f08c379a00000000000000000000000000000000000000000000000000000000081526004016122f390614d6e565b60405180910390fd5b505b81600e5461230c9190614fd3565b34101561234e576040517f08c379a000000000000000000000000000000000000000000000000000000000815260040161234590614d6e565b60405180910390fd5b5b6000600190505b8281116123da57601660003373ffffffffffffffffffffffffffffffffffffffff1673ffffffffffffffffffffffffffffffffffffffff16815260200190815260200160002060008154809291906123ad9061517a565b91905055506123c73382846123c29190614f4c565b613341565b80806123d29061517a565b915050612356565b505050565b6123e7612e80565b73ffffffffffffffffffffffffffffffffffffffff168273ffffffffffffffffffffffffffffffffffffffff161415612455576040517f08c379a000000000000000000000000000000000000000000000000000000000815260040161244c90614bae565b60405180910390fd5b8060056000612462612e80565b73ffffffffffffffffffffffffffffffffffffffff1673ffffffffffffffffffffffffffffffffffffffff16815260200190815260200160002060008473ffffffffffffffffffffffffffffffffffffffff1673ffffffffffffffffffffffffffffffffffffffff16815260200190815260200160002060006101000a81548160ff0219169083151502179055508173ffffffffffffffffffffffffffffffffffffffff1661250f612e80565b73ffffffffffffffffffffffffffffffffffffffff167f17307eab39ab6107e8899845ad3d59bd9653f200f220920489ca2b5937696c31836040516125549190614ab1565b60405180910390a35050565b612568612e80565b73ffffffffffffffffffffffffffffffffffffffff16612586611f71565b73ffffffffffffffffffffffffffffffffffffffff16146125dc576040517f08c379a00000000000000000000000000000000000000000000000000000000081526004016125d390614cce565b60405180910390fd5b6001601460016101000a81548160ff021916908315150217905550565b61260a612604612e80565b83612f41565b612649576040517f08c379a000000000000000000000000000000000000000000000000000000000815260040161264090614d8e565b60405180910390fd5b6126558484848461335f565b50505050565b6015818154811061266b57600080fd5b906000526020600020016000915054906101000a900473ffffffffffffffffffffffffffffffffffffffff1681565b60125481565b600c80546126ad90615117565b80601f01602080910402602001604051908101604052809291908181526020018280546126d990615117565b80156127265780601f106126fb57610100808354040283529160200191612726565b820191906000526020600020905b81548152906001019060200180831161270957829003601f168201915b505050505081565b606061273982612e14565b612778576040517f08c379a000000000000000000000000000000000000000000000000000000000815260040161276f90614d2e565b60405180910390fd5b60001515601460019054906101000a900460ff161515141561282657600d80546127a190615117565b80601f01602080910402602001604051908101604052809291908181526020018280546127cd90615117565b801561281a5780601f106127ef5761010080835404028352916020019161281a565b820191906000526020600020905b8154815290600101906020018083116127fd57829003601f168201915b50505050509050612882565b60006128306133bb565b90506000815111612850576040518060200160405280600081525061287e565b8061285a8461344d565b600c60405160200161286e939291906149e2565b6040516020818303038152906040525b9150505b919050565b61288f612e80565b73ffffffffffffffffffffffffffffffffffffffff166128ad611f71565b73ffffffffffffffffffffffffffffffffffffffff1614612903576040517f08c379a00000000000000000000000000000000000000000000000000000000081526004016128fa90614cce565b60405180910390fd5b8060128190555050565b60105481565b61291b612e80565b73ffffffffffffffffffffffffffffffffffffffff16612939611f71565b73ffffffffffffffffffffffffffffffffffffffff161461298f576040517f08c379a000000000000000000000000000000000000000000000000000000000815260040161298690614cce565b60405180910390fd5b80600c90805190602001906129a5929190613ec8565b5050565b6129b1612e80565b73ffffffffffffffffffffffffffffffffffffffff166129cf611f71565b73ffffffffffffffffffffffffffffffffffffffff1614612a25576040517f08c379a0000000000000000000000000000000000000000000000000000000008152600401612a1c90614cce565b60405180910390fd5b601460009054906101000a900460ff1615601460006101000a81548160ff021916908315150217905550565b600f5481565b6000600560008473ffffffffffffffffffffffffffffffffffffffff1673ffffffffffffffffffffffffffffffffffffffff16815260200190815260200160002060008373ffffffffffffffffffffffffffffffffffffffff1673ffffffffffffffffffffffffffffffffffffffff16815260200190815260200160002060009054906101000a900460ff16905092915050565b601460009054906101000a900460ff1681565b612b06612e80565b73ffffffffffffffffffffffffffffffffffffffff16612b24611f71565b73ffffffffffffffffffffffffffffffffffffffff1614612b7a576040517f08c379a0000000000000000000000000000000000000000000000000000000008152600401612b7190614cce565b60405180910390fd5b60156000612b889190613f4e565b818160159190612b99929190613f6f565b505050565b612ba6612e80565b73ffffffffffffffffffffffffffffffffffffffff16612bc4611f71565b73ffffffffffffffffffffffffffffffffffffffff1614612c1a576040517f08c379a0000000000000000000000000000000000000000000000000000000008152600401612c1190614cce565b60405180910390fd5b80600d9080519060200190612c30929190613ec8565b5050565b612c3c612e80565b73ffffffffffffffffffffffffffffffffffffffff16612c5a611f71565b73ffffffffffffffffffffffffffffffffffffffff1614612cb0576040517f08c379a0000000000000000000000000000000000000000000000000000000008152600401612ca790614cce565b60405180910390fd5b600073ffffffffffffffffffffffffffffffffffffffff168173ffffffffffffffffffffffffffffffffffffffff161415612d20576040517f08c379a0000000000000000000000000000000000000000000000000000000008152600401612d1790614b2e565b60405180910390fd5b612d298161327b565b50565b60135481565b60007f80ac58cd000000000000000000000000000000000000000000000000000000007bffffffffffffffffffffffffffffffffffffffffffffffffffffffff1916827bffffffffffffffffffffffffffffffffffffffffffffffffffffffff19161480612dfd57507f5b5e139f000000000000000000000000000000000000000000000000000000007bffffffffffffffffffffffffffffffffffffffffffffffffffffffff1916827bffffffffffffffffffffffffffffffffffffffffffffffffffffffff1916145b80612e0d5750612e0c826135fa565b5b9050919050565b60008073ffffffffffffffffffffffffffffffffffffffff166002600084815260200190815260200160002060009054906101000a900473ffffffffffffffffffffffffffffffffffffffff1673ffffffffffffffffffffffffffffffffffffffff1614159050919050565b600033905090565b816004600083815260200190815260200160002060006101000a81548173ffffffffffffffffffffffffffffffffffffffff021916908373ffffffffffffffffffffffffffffffffffffffff160217905550808273ffffffffffffffffffffffffffffffffffffffff16612efb83611c6b565b73ffffffffffffffffffffffffffffffffffffffff167f8c5be1e5ebec7d5bd14f71427d1e84f3dd0314c0f7b2291e5b200ac8c7c3b92560405160405180910390a45050565b6000612f4c82612e14565b612f8b576040517f08c379a0000000000000000000000000000000000000000000000000000000008152600401612f8290614bce565b60405180910390fd5b6000612f9683611c6b565b90508073ffffffffffffffffffffffffffffffffffffffff168473ffffffffffffffffffffffffffffffffffffffff16148061300557508373ffffffffffffffffffffffffffffffffffffffff16612fed84610bce565b73ffffffffffffffffffffffffffffffffffffffff16145b8061301657506130158185612a57565b5b91505092915050565b8273ffffffffffffffffffffffffffffffffffffffff1661303f82611c6b565b73ffffffffffffffffffffffffffffffffffffffff1614613095576040517f08c379a000000000000000000000000000000000000000000000000000000000815260040161308c90614d0e565b60405180910390fd5b600073ffffffffffffffffffffffffffffffffffffffff168273ffffffffffffffffffffffffffffffffffffffff161415613105576040517f08c379a00000000000000000000000000000000000000000000000000000000081526004016130fc90614b8e565b60405180910390fd5b613110838383613664565b61311b600082612e88565b6001600360008573ffffffffffffffffffffffffffffffffffffffff1673ffffffffffffffffffffffffffffffffffffffff168152602001908152602001600020600082825461316b919061502d565b925050819055506001600360008473ffffffffffffffffffffffffffffffffffffffff1673ffffffffffffffffffffffffffffffffffffffff16815260200190815260200160002060008282546131c29190614f4c565b92505081905550816002600083815260200190815260200160002060006101000a81548173ffffffffffffffffffffffffffffffffffffffff021916908373ffffffffffffffffffffffffffffffffffffffff160217905550808273ffffffffffffffffffffffffffffffffffffffff168473ffffffffffffffffffffffffffffffffffffffff167fddf252ad1be2c89b69c2b068fc378daa952ba7f163c4a11628f55a4df523b3ef60405160405180910390a4505050565b6000600a60009054906101000a900473ffffffffffffffffffffffffffffffffffffffff16905081600a60006101000a81548173ffffffffffffffffffffffffffffffffffffffff021916908373ffffffffffffffffffffffffffffffffffffffff1602179055508173ffffffffffffffffffffffffffffffffffffffff168173ffffffffffffffffffffffffffffffffffffffff167f8be0079c531659141344cd1fd0a4f28419497f9722a3daafe3b4186f6b6457e060405160405180910390a35050565b61335b828260405180602001604052806000815250613778565b5050565b61336a84848461301f565b613376848484846137d3565b6133b5576040517f08c379a00000000000000000000000000000000000000000000000000000000081526004016133ac90614b0e565b60405180910390fd5b50505050565b6060600b80546133ca90615117565b80601f01602080910402602001604051908101604052809291908181526020018280546133f690615117565b80156134435780601f1061341857610100808354040283529160200191613443565b820191906000526020600020905b81548152906001019060200180831161342657829003601f168201915b5050505050905090565b60606000821415613495576040518060400160405280600181526020017f300000000000000000000000000000000000000000000000000000000000000081525090506135f5565b600082905060005b600082146134c75780806134b09061517a565b915050600a826134c09190614fa2565b915061349d565b60008167ffffffffffffffff811115613509577f4e487b7100000000000000000000000000000000000000000000000000000000600052604160045260246000fd5b6040519080825280601f01601f19166020018201604052801561353b5781602001600182028036833780820191505090505b5090505b600085146135ee57600182613554919061502d565b9150600a8561356391906151c3565b603061356f9190614f4c565b60f81b8183815181106135ab577f4e487b7100000000000000000000000000000000000000000000000000000000600052603260045260246000fd5b60200101907effffffffffffffffffffffffffffffffffffffffffffffffffffffffffffff1916908160001a905350600a856135e79190614fa2565b945061353f565b8093505050505b919050565b60007f01ffc9a7000000000000000000000000000000000000000000000000000000007bffffffffffffffffffffffffffffffffffffffffffffffffffffffff1916827bffffffffffffffffffffffffffffffffffffffffffffffffffffffff1916149050919050565b61366f83838361396a565b600073ffffffffffffffffffffffffffffffffffffffff168373ffffffffffffffffffffffffffffffffffffffff1614156136b2576136ad8161396f565b6136f1565b8173ffffffffffffffffffffffffffffffffffffffff168373ffffffffffffffffffffffffffffffffffffffff16146136f0576136ef83826139b8565b5b5b600073ffffffffffffffffffffffffffffffffffffffff168273ffffffffffffffffffffffffffffffffffffffff1614156137345761372f81613b25565b613773565b8273ffffffffffffffffffffffffffffffffffffffff168273ffffffffffffffffffffffffffffffffffffffff1614613772576137718282613c68565b5b5b505050565b6137828383613ce7565b61378f60008484846137d3565b6137ce576040517f08c379a00000000000000000000000000000000000000000000000000000000081526004016137c590614b0e565b60405180910390fd5b505050565b60006137f48473ffffffffffffffffffffffffffffffffffffffff16613eb5565b1561395d578373ffffffffffffffffffffffffffffffffffffffff1663150b7a0261381d612e80565b8786866040518563ffffffff1660e01b815260040161383f9493929190614a43565b602060405180830381600087803b15801561385957600080fd5b505af192505050801561388a57506040513d601f19601f8201168201806040525081019061388791906143ed565b60015b61390d573d80600081146138ba576040519150601f19603f3d011682016040523d82523d6000602084013e6138bf565b606091505b50600081511415613905576040517f08c379a00000000000000000000000000000000000000000000000000000000081526004016138fc90614b0e565b60405180910390fd5b805181602001fd5b63150b7a0260e01b7bffffffffffffffffffffffffffffffffffffffffffffffffffffffff1916817bffffffffffffffffffffffffffffffffffffffffffffffffffffffff191614915050613962565b600190505b949350505050565b505050565b6008805490506009600083815260200190815260200160002081905550600881908060018154018082558091505060019003906000526020600020016000909190919091505550565b600060016139c584611dab565b6139cf919061502d565b9050600060076000848152602001908152602001600020549050818114613ab4576000600660008673ffffffffffffffffffffffffffffffffffffffff1673ffffffffffffffffffffffffffffffffffffffff168152602001908152602001600020600084815260200190815260200160002054905080600660008773ffffffffffffffffffffffffffffffffffffffff1673ffffffffffffffffffffffffffffffffffffffff168152602001908152602001600020600084815260200190815260200160002081905550816007600083815260200190815260200160002081905550505b6007600084815260200190815260200160002060009055600660008573ffffffffffffffffffffffffffffffffffffffff1673ffffffffffffffffffffffffffffffffffffffff16815260200190815260200160002060008381526020019081526020016000206000905550505050565b60006001600880549050613b39919061502d565b9050600060096000848152602001908152602001600020549050600060088381548110613b8f577f4e487b7100000000000000000000000000000000000000000000000000000000600052603260045260246000fd5b906000526020600020015490508060088381548110613bd7577f4e487b7100000000000000000000000000000000000000000000000000000000600052603260045260246000fd5b906000526020600020018190555081600960008381526020019081526020016000208190555060096000858152602001908152602001600020600090556008805480613c4c577f4e487b7100000000000000000000000000000000000000000000000000000000600052603160045260246000fd5b6001900381819060005260206000200160009055905550505050565b6000613c7383611dab565b905081600660008573ffffffffffffffffffffffffffffffffffffffff1673ffffffffffffffffffffffffffffffffffffffff168152602001908152602001600020600083815260200190815260200160002081905550806007600084815260200190815260200160002081905550505050565b600073ffffffffffffffffffffffffffffffffffffffff168273ffffffffffffffffffffffffffffffffffffffff161415613d57576040517f08c379a0000000000000000000000000000000000000000000000000000000008152600401613d4e90614c8e565b60405180910390fd5b613d6081612e14565b15613da0576040517f08c379a0000000000000000000000000000000000000000000000000000000008152600401613d9790614b4e565b60405180910390fd5b613dac60008383613664565b6001600360008473ffffffffffffffffffffffffffffffffffffffff1673ffffffffffffffffffffffffffffffffffffffff1681526020019081526020016000206000828254613dfc9190614f4c565b92505081905550816002600083815260200190815260200160002060006101000a81548173ffffffffffffffffffffffffffffffffffffffff021916908373ffffffffffffffffffffffffffffffffffffffff160217905550808273ffffffffffffffffffffffffffffffffffffffff16600073ffffffffffffffffffffffffffffffffffffffff167fddf252ad1be2c89b69c2b068fc378daa952ba7f163c4a11628f55a4df523b3ef60405160405180910390a45050565b600080823b905060008111915050919050565b828054613ed490615117565b90600052602060002090601f016020900481019282613ef65760008555613f3d565b82601f10613f0f57805160ff1916838001178555613f3d565b82800160010185558215613f3d579182015b82811115613f3c578251825591602001919060010190613f21565b5b509050613f4a919061400f565b5090565b5080546000825590600052602060002090810190613f6c919061400f565b50565b828054828255906000526020600020908101928215613ffe579160200282015b82811115613ffd57823573ffffffffffffffffffffffffffffffffffffffff168260006101000a81548173ffffffffffffffffffffffffffffffffffffffff021916908373ffffffffffffffffffffffffffffffffffffffff16021790555091602001919060010190613f8f565b5b50905061400b919061400f565b5090565b5b80821115614028576000816000905550600101614010565b5090565b600061403f61403a84614e4e565b614e29565b90508281526020810184848401111561405757600080fd5b6140628482856150d5565b509392505050565b600061407d61407884614e7f565b614e29565b90508281526020810184848401111561409557600080fd5b6140a08482856150d5565b509392505050565b6000813590506140b7816158ff565b92915050565b60008083601f8401126140cf57600080fd5b8235905067ffffffffffffffff8111156140e857600080fd5b60208301915083602082028301111561410057600080fd5b9250929050565b60008135905061411681615916565b92915050565b60008135905061412b8161592d565b92915050565b6000815190506141408161592d565b92915050565b600082601f83011261415757600080fd5b813561416784826020860161402c565b91505092915050565b600082601f83011261418157600080fd5b813561419184826020860161406a565b91505092915050565b6000813590506141a981615944565b92915050565b6000602082840312156141c157600080fd5b60006141cf848285016140a8565b91505092915050565b600080604083850312156141eb57600080fd5b60006141f9858286016140a8565b925050602061420a858286016140a8565b9150509250929050565b60008060006060848603121561422957600080fd5b6000614237868287016140a8565b9350506020614248868287016140a8565b92505060406142598682870161419a565b9150509250925092565b6000806000806080858703121561427957600080fd5b6000614287878288016140a8565b9450506020614298878288016140a8565b93505060406142a98782880161419a565b925050606085013567ffffffffffffffff8111156142c657600080fd5b6142d287828801614146565b91505092959194509250565b600080604083850312156142f157600080fd5b60006142ff858286016140a8565b925050602061431085828601614107565b9150509250929050565b6000806040838503121561432d57600080fd5b600061433b858286016140a8565b925050602061434c8582860161419a565b9150509250929050565b6000806020838503121561436957600080fd5b600083013567ffffffffffffffff81111561438357600080fd5b61438f858286016140bd565b92509250509250929050565b6000602082840312156143ad57600080fd5b60006143bb84828501614107565b91505092915050565b6000602082840312156143d657600080fd5b60006143e48482850161411c565b91505092915050565b6000602082840312156143ff57600080fd5b600061440d84828501614131565b91505092915050565b60006020828403121561442857600080fd5b600082013567ffffffffffffffff81111561444257600080fd5b61444e84828501614170565b91505092915050565b60006020828403121561446957600080fd5b60006144778482850161419a565b91505092915050565b600061448c83836149c4565b60208301905092915050565b6144a181615061565b82525050565b60006144b282614ed5565b6144bc8185614f03565b93506144c783614eb0565b8060005b838110156144f85781516144df8882614480565b97506144ea83614ef6565b9250506001810190506144cb565b5085935050505092915050565b61450e81615073565b82525050565b600061451f82614ee0565b6145298185614f14565b93506145398185602086016150e4565b614542816152b0565b840191505092915050565b600061455882614eeb565b6145628185614f30565b93506145728185602086016150e4565b61457b816152b0565b840191505092915050565b600061459182614eeb565b61459b8185614f41565b93506145ab8185602086016150e4565b80840191505092915050565b600081546145c481615117565b6145ce8186614f41565b945060018216600081146145e957600181146145fa5761462d565b60ff1983168652818601935061462d565b61460385614ec0565b60005b8381101561462557815481890152600182019150602081019050614606565b838801955050505b50505092915050565b6000614643602b83614f30565b915061464e826152c1565b604082019050919050565b6000614666603283614f30565b915061467182615310565b604082019050919050565b6000614689602683614f30565b91506146948261535f565b604082019050919050565b60006146ac601c83614f30565b91506146b7826153ae565b602082019050919050565b60006146cf601c83614f30565b91506146da826153d7565b602082019050919050565b60006146f2602483614f30565b91506146fd82615400565b604082019050919050565b6000614715601983614f30565b91506147208261544f565b602082019050919050565b6000614738602c83614f30565b915061474382615478565b604082019050919050565b600061475b603883614f30565b9150614766826154c7565b604082019050919050565b600061477e602a83614f30565b915061478982615516565b604082019050919050565b60006147a1602983614f30565b91506147ac82615565565b604082019050919050565b60006147c4601683614f30565b91506147cf826155b4565b602082019050919050565b60006147e7602483614f30565b91506147f2826155dd565b604082019050919050565b600061480a602083614f30565b91506148158261562c565b602082019050919050565b600061482d602c83614f30565b915061483882615655565b604082019050919050565b6000614850602083614f30565b915061485b826156a4565b602082019050919050565b6000614873601683614f30565b915061487e826156cd565b602082019050919050565b6000614896602983614f30565b91506148a1826156f6565b604082019050919050565b60006148b9602f83614f30565b91506148c482615745565b604082019050919050565b60006148dc602183614f30565b91506148e782615794565b604082019050919050565b60006148ff600083614f25565b915061490a826157e3565b600082019050919050565b6000614922601283614f30565b915061492d826157e6565b602082019050919050565b6000614945603183614f30565b91506149508261580f565b604082019050919050565b6000614968602c83614f30565b91506149738261585e565b604082019050919050565b600061498b601783614f30565b9150614996826158ad565b602082019050919050565b60006149ae601b83614f30565b91506149b9826158d6565b602082019050919050565b6149cd816150cb565b82525050565b6149dc816150cb565b82525050565b60006149ee8286614586565b91506149fa8285614586565b9150614a0682846145b7565b9150819050949350505050565b6000614a1e826148f2565b9150819050919050565b6000602082019050614a3d6000830184614498565b92915050565b6000608082019050614a586000830187614498565b614a656020830186614498565b614a7260408301856149d3565b8181036060830152614a848184614514565b905095945050505050565b60006020820190508181036000830152614aa981846144a7565b905092915050565b6000602082019050614ac66000830184614505565b92915050565b60006020820190508181036000830152614ae6818461454d565b905092915050565b60006020820190508181036000830152614b0781614636565b9050919050565b60006020820190508181036000830152614b2781614659565b9050919050565b60006020820190508181036000830152614b478161467c565b9050919050565b60006020820190508181036000830152614b678161469f565b9050919050565b60006020820190508181036000830152614b87816146c2565b9050919050565b60006020820190508181036000830152614ba7816146e5565b9050919050565b60006020820190508181036000830152614bc781614708565b9050919050565b60006020820190508181036000830152614be78161472b565b9050919050565b60006020820190508181036000830152614c078161474e565b9050919050565b60006020820190508181036000830152614c2781614771565b9050919050565b60006020820190508181036000830152614c4781614794565b9050919050565b60006020820190508181036000830152614c67816147b7565b9050919050565b60006020820190508181036000830152614c87816147da565b9050919050565b60006020820190508181036000830152614ca7816147fd565b9050919050565b60006020820190508181036000830152614cc781614820565b9050919050565b60006020820190508181036000830152614ce781614843565b9050919050565b60006020820190508181036000830152614d0781614866565b9050919050565b60006020820190508181036000830152614d2781614889565b9050919050565b60006020820190508181036000830152614d47816148ac565b9050919050565b60006020820190508181036000830152614d67816148cf565b9050919050565b60006020820190508181036000830152614d8781614915565b9050919050565b60006020820190508181036000830152614da781614938565b9050919050565b60006020820190508181036000830152614dc78161495b565b9050919050565b60006020820190508181036000830152614de78161497e565b9050919050565b60006020820190508181036000830152614e07816149a1565b9050919050565b6000602082019050614e2360008301846149d3565b92915050565b6000614e33614e44565b9050614e3f8282615149565b919050565b6000604051905090565b600067ffffffffffffffff821115614e6957614e68615281565b5b614e72826152b0565b9050602081019050919050565b600067ffffffffffffffff821115614e9a57614e99615281565b5b614ea3826152b0565b9050602081019050919050565b6000819050602082019050919050565b60008190508160005260206000209050919050565b600081519050919050565b600081519050919050565b600081519050919050565b6000602082019050919050565b600082825260208201905092915050565b600082825260208201905092915050565b600081905092915050565b600082825260208201905092915050565b600081905092915050565b6000614f57826150cb565b9150614f62836150cb565b9250827fffffffffffffffffffffffffffffffffffffffffffffffffffffffffffffffff03821115614f9757614f966151f4565b5b828201905092915050565b6000614fad826150cb565b9150614fb8836150cb565b925082614fc857614fc7615223565b5b828204905092915050565b6000614fde826150cb565b9150614fe9836150cb565b9250817fffffffffffffffffffffffffffffffffffffffffffffffffffffffffffffffff0483118215151615615022576150216151f4565b5b828202905092915050565b6000615038826150cb565b9150615043836150cb565b925082821015615056576150556151f4565b5b828203905092915050565b600061506c826150ab565b9050919050565b60008115159050919050565b60007fffffffff0000000000000000000000000000000000000000000000000000000082169050919050565b600073ffffffffffffffffffffffffffffffffffffffff82169050919050565b6000819050919050565b82818337600083830152505050565b60005b838110156151025780820151818401526020810190506150e7565b83811115615111576000848401525b50505050565b6000600282049050600182168061512f57607f821691505b6020821081141561514357615142615252565b5b50919050565b615152826152b0565b810181811067ffffffffffffffff8211171561517157615170615281565b5b80604052505050565b6000615185826150cb565b91507fffffffffffffffffffffffffffffffffffffffffffffffffffffffffffffffff8214156151b8576151b76151f4565b5b600182019050919050565b60006151ce826150cb565b91506151d9836150cb565b9250826151e9576151e8615223565b5b828206905092915050565b7f4e487b7100000000000000000000000000000000000000000000000000000000600052601160045260246000fd5b7f4e487b7100000000000000000000000000000000000000000000000000000000600052601260045260246000fd5b7f4e487b7100000000000000000000000000000000000000000000000000000000600052602260045260246000fd5b7f4e487b7100000000000000000000000000000000000000000000000000000000600052604160045260246000fd5b6000601f19601f8301169050919050565b7f455243373231456e756d657261626c653a206f776e657220696e646578206f7560008201527f74206f6620626f756e6473000000000000000000000000000000000000000000602082015250565b7f4552433732313a207472616e7366657220746f206e6f6e20455243373231526560008201527f63656976657220696d706c656d656e7465720000000000000000000000000000602082015250565b7f4f776e61626c653a206e6577206f776e657220697320746865207a65726f206160008201527f6464726573730000000000000000000000000000000000000000000000000000602082015250565b7f4552433732313a20746f6b656e20616c7265616479206d696e74656400000000600082015250565b7f6d6178204e465420706572206164647265737320657863656564656400000000600082015250565b7f4552433732313a207472616e7366657220746f20746865207a65726f2061646460008201527f7265737300000000000000000000000000000000000000000000000000000000602082015250565b7f4552433732313a20617070726f766520746f2063616c6c657200000000000000600082015250565b7f4552433732313a206f70657261746f7220717565727920666f72206e6f6e657860008201527f697374656e7420746f6b656e0000000000000000000000000000000000000000602082015250565b7f4552433732313a20617070726f76652063616c6c6572206973206e6f74206f7760008201527f6e6572206e6f7220617070726f76656420666f7220616c6c0000000000000000602082015250565b7f4552433732313a2062616c616e636520717565727920666f7220746865207a6560008201527f726f206164647265737300000000000000000000000000000000000000000000602082015250565b7f4552433732313a206f776e657220717565727920666f72206e6f6e657869737460008201527f656e7420746f6b656e0000000000000000000000000000000000000000000000602082015250565b7f6d6178204e4654206c696d697420657863656564656400000000000000000000600082015250565b7f6d6178206d696e7420616d6f756e74207065722073657373696f6e206578636560008201527f6564656400000000000000000000000000000000000000000000000000000000602082015250565b7f4552433732313a206d696e7420746f20746865207a65726f2061646472657373600082015250565b7f4552433732313a20617070726f76656420717565727920666f72206e6f6e657860008201527f697374656e7420746f6b656e0000000000000000000000000000000000000000602082015250565b7f4f776e61626c653a2063616c6c6572206973206e6f7420746865206f776e6572600082015250565b7f74686520636f6e74726163742069732070617573656400000000000000000000600082015250565b7f4552433732313a207472616e73666572206f6620746f6b656e2074686174206960008201527f73206e6f74206f776e0000000000000000000000000000000000000000000000602082015250565b7f4552433732314d657461646174613a2055524920717565727920666f72206e6f60008201527f6e6578697374656e7420746f6b656e0000000000000000000000000000000000602082015250565b7f4552433732313a20617070726f76616c20746f2063757272656e74206f776e6560008201527f7200000000000000000000000000000000000000000000000000000000000000602082015250565b50565b7f696e73756666696369656e742066756e64730000000000000000000000000000600082015250565b7f4552433732313a207472616e736665722063616c6c6572206973206e6f74206f60008201527f776e6572206e6f7220617070726f766564000000000000000000000000000000602082015250565b7f455243373231456e756d657261626c653a20676c6f62616c20696e646578206f60008201527f7574206f6620626f756e64730000000000000000000000000000000000000000602082015250565b7f75736572206973206e6f742077686974656c6973746564000000000000000000600082015250565b7f6e65656420746f206d696e74206174206c656173742031204e46540000000000600082015250565b61590881615061565b811461591357600080fd5b50565b61591f81615073565b811461592a57600080fd5b50565b6159368161507f565b811461594157600080fd5b50565b61594d816150cb565b811461595857600080fd5b5056fea2646970667358221220cd037f632cd2829cac47ec3373e3394aeeeaa39a5d9bfc389062fbfdfadcd99064736f6c63430008040033",
  "linkReferences": {},
  "deployedLinkReferences": {}
}