{
  "_format": "hh-sol-artifact-1",
  "contractName": "NFT",
  "sourceName": "contracts/nftfull.sol",
  "abi": [
    {
      "inputs": [
        {
          "internalType": "string",
          "name": "_name",
          "type": "string"
        },
        {
          "internalType": "string",
          "name": "_symbol",
          "type": "string"
        },
        {
          "internalType": "string",
          "name": "_initBaseURI",
          "type": "string"
        },
        {
          "internalType": "string",
          "name": "_initNotRevealedUri",
          "type": "string"
        }
      ],
      "stateMutability": "nonpayable",
      "type": "constructor"
    },
    {
      "anonymous": false,
      "inputs": [
        {
          "indexed": true,
          "internalType": "address",
          "name": "owner",
          "type": "address"
        },
        {
          "indexed": true,
          "internalType": "address",
          "name": "approved",
          "type": "address"
        },
        {
          "indexed": true,
          "internalType": "uint256",
          "name": "tokenId",
          "type": "uint256"
        }
      ],
      "name": "Approval",
      "type": "event"
    },
    {
      "anonymous": false,
      "inputs": [
        {
          "indexed": true,
          "internalType": "address",
          "name": "owner",
          "type": "address"
        },
        {
          "indexed": true,
          "internalType": "address",
          "name": "operator",
          "type": "address"
        },
        {
          "indexed": false,
          "internalType": "bool",
          "name": "approved",
          "type": "bool"
        }
      ],
      "name": "ApprovalForAll",
      "type": "event"
    },
    {
      "anonymous": false,
      "inputs": [
        {
          "indexed": true,
          "internalType": "address",
          "name": "previousOwner",
          "type": "address"
        },
        {
          "indexed": true,
          "internalType": "address",
          "name": "newOwner",
          "type": "address"
        }
      ],
      "name": "OwnershipTransferred",
      "type": "event"
    },
    {
      "anonymous": false,
      "inputs": [
        {
          "indexed": true,
          "internalType": "address",
          "name": "from",
          "type": "address"
        },
        {
          "indexed": true,
          "internalType": "address",
          "name": "to",
          "type": "address"
        },
        {
          "indexed": true,
          "internalType": "uint256",
          "name": "tokenId",
          "type": "uint256"
        }
      ],
      "name": "Transfer",
      "type": "event"
    },
    {
      "inputs": [
        {
          "internalType": "address",
          "name": "",
          "type": "address"
        }
      ],
      "name": "addressMintedBalance",
      "outputs": [
        {
          "internalType": "uint256",
          "name": "",
          "type": "uint256"
        }
      ],
      "stateMutability": "view",
      "type": "function"
    },
    {
      "inputs": [
        {
          "internalType": "address",
          "name": "to",
          "type": "address"
        },
        {
          "internalType": "uint256",
          "name": "tokenId",
          "type": "uint256"
        }
      ],
      "name": "approve",
      "outputs": [],
      "stateMutability": "nonpayable",
      "type": "function"
    },
    {
      "inputs": [
        {
          "internalType": "address",
          "name": "owner",
          "type": "address"
        }
      ],
      "name": "balanceOf",
      "outputs": [
        {
          "internalType": "uint256",
          "name": "",
          "type": "uint256"
        }
      ],
      "stateMutability": "view",
      "type": "function"
    },
    {
      "inputs": [],
      "name": "baseExtension",
      "outputs": [
        {
          "internalType": "string",
          "name": "",
          "type": "string"
        }
      ],
      "stateMutability": "view",
      "type": "function"
    },
    {
      "inputs": [],
      "name": "baseURI",
      "outputs": [
        {
          "internalType": "string",
          "name": "",
          "type": "string"
        }
      ],
      "stateMutability": "view",
      "type": "function"
    },
    {
      "inputs": [],
      "name": "cost",
      "outputs": [
        {
          "internalType": "uint256",
          "name": "",
          "type": "uint256"
        }
      ],
      "stateMutability": "view",
      "type": "function"
    },
    {
      "inputs": [
        {
          "internalType": "uint256",
          "name": "tokenId",
          "type": "uint256"
        }
      ],
      "name": "getApproved",
      "outputs": [
        {
          "internalType": "address",
          "name": "",
          "type": "address"
        }
      ],
      "stateMutability": "view",
      "type": "function"
    },
    {
      "inputs": [
        {
          "internalType": "address",
          "name": "owner",
          "type": "address"
        },
        {
          "internalType": "address",
          "name": "operator",
          "type": "address"
        }
      ],
      "name": "isApprovedForAll",
      "outputs": [
        {
          "internalType": "bool",
          "name": "",
          "type": "bool"
        }
      ],
      "stateMutability": "view",
      "type": "function"
    },
    {
      "inputs": [
        {
          "internalType": "address",
          "name": "_user",
          "type": "address"
        }
      ],
      "name": "isWhitelisted",
      "outputs": [
        {
          "internalType": "bool",
          "name": "",
          "type": "bool"
        }
      ],
      "stateMutability": "view",
      "type": "function"
    },
    {
      "inputs": [],
      "name": "maxMintAmount",
      "outputs": [
        {
          "internalType": "uint256",
          "name": "",
          "type": "uint256"
        }
      ],
      "stateMutability": "view",
      "type": "function"
    },
    {
      "inputs": [],
      "name": "maxSupply",
      "outputs": [
        {
          "internalType": "uint256",
          "name": "",
          "type": "uint256"
        }
      ],
      "stateMutability": "view",
      "type": "function"
    },
    {
      "inputs": [
        {
          "internalType": "uint256",
          "name": "_mintAmount",
          "type": "uint256"
        }
      ],
      "name": "mint",
      "outputs": [],
      "stateMutability": "payable",
      "type": "function"
    },
    {
      "inputs": [],
      "name": "name",
      "outputs": [
        {
          "internalType": "string",
          "name": "",
          "type": "string"
        }
      ],
      "stateMutability": "view",
      "type": "function"
    },
    {
      "inputs": [],
      "name": "nftPerAddressLimit",
      "outputs": [
        {
          "internalType": "uint256",
          "name": "",
          "type": "uint256"
        }
      ],
      "stateMutability": "view",
      "type": "function"
    },
    {
      "inputs": [],
      "name": "notRevealedUri",
      "outputs": [
        {
          "internalType": "string",
          "name": "",
          "type": "string"
        }
      ],
      "stateMutability": "view",
      "type": "function"
    },
    {
      "inputs": [],
      "name": "onlyWhitelisted",
      "outputs": [
        {
          "internalType": "bool",
          "name": "",
          "type": "bool"
        }
      ],
      "stateMutability": "view",
      "type": "function"
    },
    {
      "inputs": [],
      "name": "owner",
      "outputs": [
        {
          "internalType": "address",
          "name": "",
          "type": "address"
        }
      ],
      "stateMutability": "view",
      "type": "function"
    },
    {
      "inputs": [
        {
          "internalType": "uint256",
          "name": "tokenId",
          "type": "uint256"
        }
      ],
      "name": "ownerOf",
      "outputs": [
        {
          "internalType": "address",
          "name": "",
          "type": "address"
        }
      ],
      "stateMutability": "view",
      "type": "function"
    },
    {
      "inputs": [],
      "name": "renounceOwnership",
      "outputs": [],
      "stateMutability": "nonpayable",
      "type": "function"
    },
    {
      "inputs": [],
      "name": "reveal",
      "outputs": [],
      "stateMutability": "nonpayable",
      "type": "function"
    },
    {
      "inputs": [],
      "name": "revealed",
      "outputs": [
        {
          "internalType": "bool",
          "name": "",
          "type": "bool"
        }
      ],
      "stateMutability": "view",
      "type": "function"
    },
    {
      "inputs": [
        {
          "internalType": "address",
          "name": "from",
          "type": "address"
        },
        {
          "internalType": "address",
          "name": "to",
          "type": "address"
        },
        {
          "internalType": "uint256",
          "name": "tokenId",
          "type": "uint256"
        }
      ],
      "name": "safeTransferFrom",
      "outputs": [],
      "stateMutability": "nonpayable",
      "type": "function"
    },
    {
      "inputs": [
        {
          "internalType": "address",
          "name": "from",
          "type": "address"
        },
        {
          "internalType": "address",
          "name": "to",
          "type": "address"
        },
        {
          "internalType": "uint256",
          "name": "tokenId",
          "type": "uint256"
        },
        {
          "internalType": "bytes",
          "name": "_data",
          "type": "bytes"
        }
      ],
      "name": "safeTransferFrom",
      "outputs": [],
      "stateMutability": "nonpayable",
      "type": "function"
    },
    {
      "inputs": [],
      "name": "saleIsActive",
      "outputs": [
        {
          "internalType": "bool",
          "name": "",
          "type": "bool"
        }
      ],
      "stateMutability": "view",
      "type": "function"
    },
    {
      "inputs": [
        {
          "internalType": "address",
          "name": "operator",
          "type": "address"
        },
        {
          "internalType": "bool",
          "name": "approved",
          "type": "bool"
        }
      ],
      "name": "setApprovalForAll",
      "outputs": [],
      "stateMutability": "nonpayable",
      "type": "function"
    },
    {
      "inputs": [
        {
          "internalType": "string",
          "name": "_newBaseExtension",
          "type": "string"
        }
      ],
      "name": "setBaseExtension",
      "outputs": [],
      "stateMutability": "nonpayable",
      "type": "function"
    },
    {
      "inputs": [
        {
          "internalType": "string",
          "name": "_newBaseURI",
          "type": "string"
        }
      ],
      "name": "setBaseURI",
      "outputs": [],
      "stateMutability": "nonpayable",
      "type": "function"
    },
    {
      "inputs": [
        {
          "internalType": "uint256",
          "name": "_newCost",
          "type": "uint256"
        }
      ],
      "name": "setCost",
      "outputs": [],
      "stateMutability": "nonpayable",
      "type": "function"
    },
    {
      "inputs": [
        {
          "internalType": "uint256",
          "name": "_limit",
          "type": "uint256"
        }
      ],
      "name": "setNftPerAddressLimit",
      "outputs": [],
      "stateMutability": "nonpayable",
      "type": "function"
    },
    {
      "inputs": [
        {
          "internalType": "string",
          "name": "_notRevealedURI",
          "type": "string"
        }
      ],
      "name": "setNotRevealedURI",
      "outputs": [],
      "stateMutability": "nonpayable",
      "type": "function"
    },
    {
      "inputs": [
        {
          "internalType": "bool",
          "name": "_state",
          "type": "bool"
        }
      ],
      "name": "setOnlyWhitelisted",
      "outputs": [],
      "stateMutability": "nonpayable",
      "type": "function"
    },
    {
      "inputs": [
        {
          "internalType": "uint256",
          "name": "_newmaxMintAmount",
          "type": "uint256"
        }
      ],
      "name": "setmaxMintAmount",
      "outputs": [],
      "stateMutability": "nonpayable",
      "type": "function"
    },
    {
      "inputs": [
        {
          "internalType": "bytes4",
          "name": "interfaceId",
          "type": "bytes4"
        }
      ],
      "name": "supportsInterface",
      "outputs": [
        {
          "internalType": "bool",
          "name": "",
          "type": "bool"
        }
      ],
      "stateMutability": "view",
      "type": "function"
    },
    {
      "inputs": [],
      "name": "symbol",
      "outputs": [
        {
          "internalType": "string",
          "name": "",
          "type": "string"
        }
      ],
      "stateMutability": "view",
      "type": "function"
    },
    {
      "inputs": [],
      "name": "toggleSaleState",
      "outputs": [],
      "stateMutability": "nonpayable",
      "type": "function"
    },
    {
      "inputs": [
        {
          "internalType": "uint256",
          "name": "index",
          "type": "uint256"
        }
      ],
      "name": "tokenByIndex",
      "outputs": [
        {
          "internalType": "uint256",
          "name": "",
          "type": "uint256"
        }
      ],
      "stateMutability": "view",
      "type": "function"
    },
    {
      "inputs": [
        {
          "internalType": "address",
          "name": "owner",
          "type": "address"
        },
        {
          "internalType": "uint256",
          "name": "index",
          "type": "uint256"
        }
      ],
      "name": "tokenOfOwnerByIndex",
      "outputs": [
        {
          "internalType": "uint256",
          "name": "",
          "type": "uint256"
        }
      ],
      "stateMutability": "view",
      "type": "function"
    },
    {
      "inputs": [
        {
          "internalType": "uint256",
          "name": "tokenId",
          "type": "uint256"
        }
      ],
      "name": "tokenURI",
      "outputs": [
        {
          "internalType": "string",
          "name": "",
          "type": "string"
        }
      ],
      "stateMutability": "view",
      "type": "function"
    },
    {
      "inputs": [],
      "name": "totalSupply",
      "outputs": [
        {
          "internalType": "uint256",
          "name": "",
          "type": "uint256"
        }
      ],
      "stateMutability": "view",
      "type": "function"
    },
    {
      "inputs": [
        {
          "internalType": "address",
          "name": "from",
          "type": "address"
        },
        {
          "internalType": "address",
          "name": "to",
          "type": "address"
        },
        {
          "internalType": "uint256",
          "name": "tokenId",
          "type": "uint256"
        }
      ],
      "name": "transferFrom",
      "outputs": [],
      "stateMutability": "nonpayable",
      "type": "function"
    },
    {
      "inputs": [
        {
          "internalType": "address",
          "name": "newOwner",
          "type": "address"
        }
      ],
      "name": "transferOwnership",
      "outputs": [],
      "stateMutability": "nonpayable",
      "type": "function"
    },
    {
      "inputs": [
        {
          "internalType": "address",
          "name": "_owner",
          "type": "address"
        }
      ],
      "name": "walletOfOwner",
      "outputs": [
        {
          "internalType": "uint256[]",
          "name": "",
          "type": "uint256[]"
        }
      ],
      "stateMutability": "view",
      "type": "function"
    },
    {
      "inputs": [
        {
          "internalType": "address[]",
          "name": "_users",
          "type": "address[]"
        }
      ],
      "name": "whitelistUsers",
      "outputs": [],
      "stateMutability": "nonpayable",
      "type": "function"
    },
    {
      "inputs": [
        {
          "internalType": "uint256",
          "name": "",
          "type": "uint256"
        }
      ],
      "name": "whitelistedAddresses",
      "outputs": [
        {
          "internalType": "address",
          "name": "",
          "type": "address"
        }
      ],
      "stateMutability": "view",
      "type": "function"
    },
    {
      "inputs": [],
      "name": "withdraw",
      "outputs": [],
      "stateMutability": "payable",
      "type": "function"
    }
  ],
  "bytecode": "0x60806040526040518060400160405280600581526020017f2e6a736f6e000000000000000000000000000000000000000000000000000000815250600c908051906020019062000051929190620007be565b5067016345785d8a0000600e55611e61600f55603260105560146011556001601260006101000a81548160ff0219169083151502179055506001601260016101000a81548160ff0219169083151502179055506000601260026101000a81548160ff02191690831515021790555073ab8483f64d9c6d1ecf9b849ae677dd3315835cb2601560006101000a81548173ffffffffffffffffffffffffffffffffffffffff021916908373ffffffffffffffffffffffffffffffffffffffff160217905550734b20993bc481177ec7e8f571cecae8a9e22c02db601660006101000a81548173ffffffffffffffffffffffffffffffffffffffff021916908373ffffffffffffffffffffffffffffffffffffffff1602179055507378731d3ca6b7e34ac0f824c42a7cc18a495cabab601760006101000a81548173ffffffffffffffffffffffffffffffffffffffff021916908373ffffffffffffffffffffffffffffffffffffffff16021790555073617f2e2fd72fd9d5503197092ac168c91465e7f2601860006101000a81548173ffffffffffffffffffffffffffffffffffffffff021916908373ffffffffffffffffffffffffffffffffffffffff1602179055507317f6ad8ef982297579c203069c1dbffe4348c372601960006101000a81548173ffffffffffffffffffffffffffffffffffffffff021916908373ffffffffffffffffffffffffffffffffffffffff160217905550735c6b0f7bf3e7ce046039bd8fabdfd3f9f5021678601a60006101000a81548173ffffffffffffffffffffffffffffffffffffffff021916908373ffffffffffffffffffffffffffffffffffffffff1602179055507303c6fced478cbbc9a4fab34ef9f40767739d1ff7601b60006101000a81548173ffffffffffffffffffffffffffffffffffffffff021916908373ffffffffffffffffffffffffffffffffffffffff160217905550731ae0ea34a72d944a8c7603ffb3ec30a6669e454c601c60006101000a81548173ffffffffffffffffffffffffffffffffffffffff021916908373ffffffffffffffffffffffffffffffffffffffff160217905550730a098eda01ce92ff4a4ccb7a4fffb5a43ebc70dc601d60006101000a81548173ffffffffffffffffffffffffffffffffffffffff021916908373ffffffffffffffffffffffffffffffffffffffff16021790555073ca35b7d915458ef540ade6068dfe2f44e8fa733c601e60006101000a81548173ffffffffffffffffffffffffffffffffffffffff021916908373ffffffffffffffffffffffffffffffffffffffff1602179055507314723a09acff6d2a60dcdf7aa4aff308fddc160c601f60006101000a81548173ffffffffffffffffffffffffffffffffffffffff021916908373ffffffffffffffffffffffffffffffffffffffff160217905550734b0897b0513fdc7c541b6d9d7e929c4e5364d2db602060006101000a81548173ffffffffffffffffffffffffffffffffffffffff021916908373ffffffffffffffffffffffffffffffffffffffff160217905550348015620004c857600080fd5b506040516200647c3803806200647c8339818101604052810190620004ee9190620008e0565b8383816000908051906020019062000508929190620007be565b50806001908051906020019062000521929190620007be565b50505062000544620005386200057060201b60201c565b6200057860201b60201c565b62000555826200063e60201b60201c565b6200056681620006e960201b60201c565b5050505062000ba3565b600033905090565b6000600a60009054906101000a900473ffffffffffffffffffffffffffffffffffffffff16905081600a60006101000a81548173ffffffffffffffffffffffffffffffffffffffff021916908373ffffffffffffffffffffffffffffffffffffffff1602179055508173ffffffffffffffffffffffffffffffffffffffff168173ffffffffffffffffffffffffffffffffffffffff167f8be0079c531659141344cd1fd0a4f28419497f9722a3daafe3b4186f6b6457e060405160405180910390a35050565b6200064e6200057060201b60201c565b73ffffffffffffffffffffffffffffffffffffffff16620006746200079460201b60201c565b73ffffffffffffffffffffffffffffffffffffffff1614620006cd576040517f08c379a0000000000000000000000000000000000000000000000000000000008152600401620006c490620009d7565b60405180910390fd5b80600b9080519060200190620006e5929190620007be565b5050565b620006f96200057060201b60201c565b73ffffffffffffffffffffffffffffffffffffffff166200071f6200079460201b60201c565b73ffffffffffffffffffffffffffffffffffffffff161462000778576040517f08c379a00000000000000000000000000000000000000000000000000000000081526004016200076f90620009d7565b60405180910390fd5b80600d908051906020019062000790929190620007be565b5050565b6000600a60009054906101000a900473ffffffffffffffffffffffffffffffffffffffff16905090565b828054620007cc9062000a9f565b90600052602060002090601f016020900481019282620007f057600085556200083c565b82601f106200080b57805160ff19168380011785556200083c565b828001600101855582156200083c579182015b828111156200083b5782518255916020019190600101906200081e565b5b5090506200084b91906200084f565b5090565b5b808211156200086a57600081600090555060010162000850565b5090565b6000620008856200087f8462000a22565b620009f9565b9050828152602081018484840111156200089e57600080fd5b620008ab84828562000a69565b509392505050565b600082601f830112620008c557600080fd5b8151620008d78482602086016200086e565b91505092915050565b60008060008060808587031215620008f757600080fd5b600085015167ffffffffffffffff8111156200091257600080fd5b6200092087828801620008b3565b945050602085015167ffffffffffffffff8111156200093e57600080fd5b6200094c87828801620008b3565b935050604085015167ffffffffffffffff8111156200096a57600080fd5b6200097887828801620008b3565b925050606085015167ffffffffffffffff8111156200099657600080fd5b620009a487828801620008b3565b91505092959194509250565b6000620009bf60208362000a58565b9150620009cc8262000b7a565b602082019050919050565b60006020820190508181036000830152620009f281620009b0565b9050919050565b600062000a0562000a18565b905062000a13828262000ad5565b919050565b6000604051905090565b600067ffffffffffffffff82111562000a405762000a3f62000b3a565b5b62000a4b8262000b69565b9050602081019050919050565b600082825260208201905092915050565b60005b8381101562000a8957808201518184015260208101905062000a6c565b8381111562000a99576000848401525b50505050565b6000600282049050600182168062000ab857607f821691505b6020821081141562000acf5762000ace62000b0b565b5b50919050565b62000ae08262000b69565b810181811067ffffffffffffffff8211171562000b025762000b0162000b3a565b5b80604052505050565b7f4e487b7100000000000000000000000000000000000000000000000000000000600052602260045260246000fd5b7f4e487b7100000000000000000000000000000000000000000000000000000000600052604160045260246000fd5b6000601f19601f8301169050919050565b7f4f776e61626c653a2063616c6c6572206973206e6f7420746865206f776e6572600082015250565b6158c98062000bb36000396000f3fe6080604052600436106102725760003560e01c806370a082311161014f578063ba7d2c76116100c1578063daaeec861161007a578063daaeec861461095c578063e985e9c514610973578063eb8d2444146109b0578063edec5f27146109db578063f2c4ce1e14610a04578063f2fde38b14610a2d57610272565b8063ba7d2c761461084c578063c668286214610877578063c87b56dd146108a2578063d0eb26b0146108df578063d5abeb0114610908578063da3ef23f1461093357610272565b80639c70b512116101135780639c70b5121461075f578063a0712d681461078a578063a22cb465146107a6578063a475b5dd146107cf578063b88d4fde146107e6578063ba4e5c491461080f57610272565b806370a082311461068c578063715018a6146106c95780637f00c7a6146106e05780638da5cb5b1461070957806395d89b411461073457610272565b80633af32abf116101e857806344a0d68a116101ac57806344a0d68a1461056a5780634f6ccce71461059357806351830227146105d057806355f804b3146105fb5780636352211e146106245780636c0360eb1461066157610272565b80633af32abf146104945780633c952764146104d15780633ccfd60b146104fa57806342842e0e14610504578063438b63001461052d57610272565b806313faede61161023a57806313faede61461037057806318160ddd1461039b57806318cae269146103c6578063239c70ae1461040357806323b872dd1461042e5780632f745c591461045757610272565b806301ffc9a71461027757806306fdde03146102b4578063081812fc146102df578063081c8c441461031c578063095ea7b314610347575b600080fd5b34801561028357600080fd5b5061029e600480360381019061029991906142fc565b610a56565b6040516102ab91906149e9565b60405180910390f35b3480156102c057600080fd5b506102c9610ad0565b6040516102d69190614a04565b60405180910390f35b3480156102eb57600080fd5b506103066004803603810190610301919061438f565b610b62565b6040516103139190614960565b60405180910390f35b34801561032857600080fd5b50610331610be7565b60405161033e9190614a04565b60405180910390f35b34801561035357600080fd5b5061036e60048036038101906103699190614252565b610c75565b005b34801561037c57600080fd5b50610385610d8d565b6040516103929190614d46565b60405180910390f35b3480156103a757600080fd5b506103b0610d93565b6040516103bd9190614d46565b60405180910390f35b3480156103d257600080fd5b506103ed60048036038101906103e891906140e7565b610da0565b6040516103fa9190614d46565b60405180910390f35b34801561040f57600080fd5b50610418610db8565b6040516104259190614d46565b60405180910390f35b34801561043a57600080fd5b506104556004803603810190610450919061414c565b610dbe565b005b34801561046357600080fd5b5061047e60048036038101906104799190614252565b610e1e565b60405161048b9190614d46565b60405180910390f35b3480156104a057600080fd5b506104bb60048036038101906104b691906140e7565b610ec3565b6040516104c891906149e9565b60405180910390f35b3480156104dd57600080fd5b506104f860048036038101906104f391906142d3565b610f98565b005b610502611031565b005b34801561051057600080fd5b5061052b6004803603810190610526919061414c565b61191f565b005b34801561053957600080fd5b50610554600480360381019061054f91906140e7565b61193f565b60405161056191906149c7565b60405180910390f35b34801561057657600080fd5b50610591600480360381019061058c919061438f565b611a39565b005b34801561059f57600080fd5b506105ba60048036038101906105b5919061438f565b611abf565b6040516105c79190614d46565b60405180910390f35b3480156105dc57600080fd5b506105e5611b56565b6040516105f291906149e9565b60405180910390f35b34801561060757600080fd5b50610622600480360381019061061d919061434e565b611b69565b005b34801561063057600080fd5b5061064b6004803603810190610646919061438f565b611bff565b6040516106589190614960565b60405180910390f35b34801561066d57600080fd5b50610676611cb1565b6040516106839190614a04565b60405180910390f35b34801561069857600080fd5b506106b360048036038101906106ae91906140e7565b611d3f565b6040516106c09190614d46565b60405180910390f35b3480156106d557600080fd5b506106de611df7565b005b3480156106ec57600080fd5b506107076004803603810190610702919061438f565b611e7f565b005b34801561071557600080fd5b5061071e611f05565b60405161072b9190614960565b60405180910390f35b34801561074057600080fd5b50610749611f2f565b6040516107569190614a04565b60405180910390f35b34801561076b57600080fd5b50610774611fc1565b60405161078191906149e9565b60405180910390f35b6107a4600480360381019061079f919061438f565b611fd4565b005b3480156107b257600080fd5b506107cd60048036038101906107c89190614216565b612323565b005b3480156107db57600080fd5b506107e46124a4565b005b3480156107f257600080fd5b5061080d6004803603810190610808919061419b565b61253d565b005b34801561081b57600080fd5b506108366004803603810190610831919061438f565b61259f565b6040516108439190614960565b60405180910390f35b34801561085857600080fd5b506108616125de565b60405161086e9190614d46565b60405180910390f35b34801561088357600080fd5b5061088c6125e4565b6040516108999190614a04565b60405180910390f35b3480156108ae57600080fd5b506108c960048036038101906108c4919061438f565b612672565b6040516108d69190614a04565b60405180910390f35b3480156108eb57600080fd5b506109066004803603810190610901919061438f565b6127cb565b005b34801561091457600080fd5b5061091d612851565b60405161092a9190614d46565b60405180910390f35b34801561093f57600080fd5b5061095a6004803603810190610955919061434e565b612857565b005b34801561096857600080fd5b506109716128ed565b005b34801561097f57600080fd5b5061099a60048036038101906109959190614110565b612995565b6040516109a791906149e9565b60405180910390f35b3480156109bc57600080fd5b506109c5612a29565b6040516109d291906149e9565b60405180910390f35b3480156109e757600080fd5b50610a0260048036038101906109fd919061428e565b612a3c565b005b348015610a1057600080fd5b50610a2b6004803603810190610a26919061434e565b612adc565b005b348015610a3957600080fd5b50610a546004803603810190610a4f91906140e7565b612b72565b005b60007f780e9d63000000000000000000000000000000000000000000000000000000007bffffffffffffffffffffffffffffffffffffffffffffffffffffffff1916827bffffffffffffffffffffffffffffffffffffffffffffffffffffffff19161480610ac95750610ac882612c6a565b5b9050919050565b606060008054610adf9061504f565b80601f0160208091040260200160405190810160405280929190818152602001828054610b0b9061504f565b8015610b585780601f10610b2d57610100808354040283529160200191610b58565b820191906000526020600020905b815481529060010190602001808311610b3b57829003601f168201915b5050505050905090565b6000610b6d82612d4c565b610bac576040517f08c379a0000000000000000000000000000000000000000000000000000000008152600401610ba390614be6565b60405180910390fd5b6004600083815260200190815260200160002060009054906101000a900473ffffffffffffffffffffffffffffffffffffffff169050919050565b600d8054610bf49061504f565b80601f0160208091040260200160405190810160405280929190818152602001828054610c209061504f565b8015610c6d5780601f10610c4257610100808354040283529160200191610c6d565b820191906000526020600020905b815481529060010190602001808311610c5057829003601f168201915b505050505081565b6000610c8082611bff565b90508073ffffffffffffffffffffffffffffffffffffffff168373ffffffffffffffffffffffffffffffffffffffff161415610cf1576040517f08c379a0000000000000000000000000000000000000000000000000000000008152600401610ce890614c86565b60405180910390fd5b8073ffffffffffffffffffffffffffffffffffffffff16610d10612db8565b73ffffffffffffffffffffffffffffffffffffffff161480610d3f5750610d3e81610d39612db8565b612995565b5b610d7e576040517f08c379a0000000000000000000000000000000000000000000000000000000008152600401610d7590614b26565b60405180910390fd5b610d888383612dc0565b505050565b600e5481565b6000600880549050905090565b60146020528060005260406000206000915090505481565b60105481565b610dcf610dc9612db8565b82612e79565b610e0e576040517f08c379a0000000000000000000000000000000000000000000000000000000008152600401610e0590614cc6565b60405180910390fd5b610e19838383612f57565b505050565b6000610e2983611d3f565b8210610e6a576040517f08c379a0000000000000000000000000000000000000000000000000000000008152600401610e6190614a26565b60405180910390fd5b600660008473ffffffffffffffffffffffffffffffffffffffff1673ffffffffffffffffffffffffffffffffffffffff168152602001908152602001600020600083815260200190815260200160002054905092915050565b600080600090505b601380549050811015610f8d578273ffffffffffffffffffffffffffffffffffffffff1660138281548110610f29577f4e487b7100000000000000000000000000000000000000000000000000000000600052603260045260246000fd5b9060005260206000200160009054906101000a900473ffffffffffffffffffffffffffffffffffffffff1673ffffffffffffffffffffffffffffffffffffffff161415610f7a576001915050610f93565b8080610f85906150b2565b915050610ecb565b50600090505b919050565b610fa0612db8565b73ffffffffffffffffffffffffffffffffffffffff16610fbe611f05565b73ffffffffffffffffffffffffffffffffffffffff1614611014576040517f08c379a000000000000000000000000000000000000000000000000000000000815260040161100b90614c06565b60405180910390fd5b80601260026101000a81548160ff02191690831515021790555050565b611039612db8565b73ffffffffffffffffffffffffffffffffffffffff16611057611f05565b73ffffffffffffffffffffffffffffffffffffffff16146110ad576040517f08c379a00000000000000000000000000000000000000000000000000000000081526004016110a490614c06565b60405180910390fd5b6000601560009054906101000a900473ffffffffffffffffffffffffffffffffffffffff1673ffffffffffffffffffffffffffffffffffffffff16620186a0614650476110fa9190614f0b565b6111049190614eda565b6040516111109061494b565b60006040518083038185875af1925050503d806000811461114d576040519150601f19603f3d011682016040523d82523d6000602084013e611152565b606091505b505090508061116057600080fd5b6000601660009054906101000a900473ffffffffffffffffffffffffffffffffffffffff1673ffffffffffffffffffffffffffffffffffffffff16620186a0613926476111ad9190614f0b565b6111b79190614eda565b6040516111c39061494b565b60006040518083038185875af1925050503d8060008114611200576040519150601f19603f3d011682016040523d82523d6000602084013e611205565b606091505b505090508061121357600080fd5b6000601760009054906101000a900473ffffffffffffffffffffffffffffffffffffffff1673ffffffffffffffffffffffffffffffffffffffff16620186a06142fe476112609190614f0b565b61126a9190614eda565b6040516112769061494b565b60006040518083038185875af1925050503d80600081146112b3576040519150601f19603f3d011682016040523d82523d6000602084013e6112b8565b606091505b50509050806112c657600080fd5b6000601860009054906101000a900473ffffffffffffffffffffffffffffffffffffffff1673ffffffffffffffffffffffffffffffffffffffff16620186a06150dc476113139190614f0b565b61131d9190614eda565b6040516113299061494b565b60006040518083038185875af1925050503d8060008114611366576040519150601f19603f3d011682016040523d82523d6000602084013e61136b565b606091505b505090508061137957600080fd5b6000601960009054906101000a900473ffffffffffffffffffffffffffffffffffffffff1673ffffffffffffffffffffffffffffffffffffffff16620186a06165f4476113c69190614f0b565b6113d09190614eda565b6040516113dc9061494b565b60006040518083038185875af1925050503d8060008114611419576040519150601f19603f3d011682016040523d82523d6000602084013e61141e565b606091505b505090508061142c57600080fd5b6000601a60009054906101000a900473ffffffffffffffffffffffffffffffffffffffff1673ffffffffffffffffffffffffffffffffffffffff16620186a0612dfa476114799190614f0b565b6114839190614eda565b60405161148f9061494b565b60006040518083038185875af1925050503d80600081146114cc576040519150601f19603f3d011682016040523d82523d6000602084013e6114d1565b606091505b50509050806114df57600080fd5b6000601b60009054906101000a900473ffffffffffffffffffffffffffffffffffffffff1673ffffffffffffffffffffffffffffffffffffffff16620186a06127104761152c9190614f0b565b6115369190614eda565b6040516115429061494b565b60006040518083038185875af1925050503d806000811461157f576040519150601f19603f3d011682016040523d82523d6000602084013e611584565b606091505b505090508061159257600080fd5b6000601c60009054906101000a900473ffffffffffffffffffffffffffffffffffffffff1673ffffffffffffffffffffffffffffffffffffffff16620186a0610e74476115df9190614f0b565b6115e99190614eda565b6040516115f59061494b565b60006040518083038185875af1925050503d8060008114611632576040519150601f19603f3d011682016040523d82523d6000602084013e611637565b606091505b505090508061164557600080fd5b6000601d60009054906101000a900473ffffffffffffffffffffffffffffffffffffffff1673ffffffffffffffffffffffffffffffffffffffff16620186a0610f00476116929190614f0b565b61169c9190614eda565b6040516116a89061494b565b60006040518083038185875af1925050503d80600081146116e5576040519150601f19603f3d011682016040523d82523d6000602084013e6116ea565b606091505b50509050806116f857600080fd5b6000601e60009054906101000a900473ffffffffffffffffffffffffffffffffffffffff1673ffffffffffffffffffffffffffffffffffffffff16620186a0610fa0476117459190614f0b565b61174f9190614eda565b60405161175b9061494b565b60006040518083038185875af1925050503d8060008114611798576040519150601f19603f3d011682016040523d82523d6000602084013e61179d565b606091505b50509050806117ab57600080fd5b6000601f60009054906101000a900473ffffffffffffffffffffffffffffffffffffffff1673ffffffffffffffffffffffffffffffffffffffff16620186a061104a476117f89190614f0b565b6118029190614eda565b60405161180e9061494b565b60006040518083038185875af1925050503d806000811461184b576040519150601f19603f3d011682016040523d82523d6000602084013e611850565b606091505b505090508061185e57600080fd5b6000602060009054906101000a900473ffffffffffffffffffffffffffffffffffffffff1673ffffffffffffffffffffffffffffffffffffffff16620186a06110fe476118ab9190614f0b565b6118b59190614eda565b6040516118c19061494b565b60006040518083038185875af1925050503d80600081146118fe576040519150601f19603f3d011682016040523d82523d6000602084013e611903565b606091505b505090508061191157600080fd5b505050505050505050505050565b61193a8383836040518060200160405280600081525061253d565b505050565b6060600061194c83611d3f565b905060008167ffffffffffffffff811115611990577f4e487b7100000000000000000000000000000000000000000000000000000000600052604160045260246000fd5b6040519080825280602002602001820160405280156119be5781602001602082028036833780820191505090505b50905060005b82811015611a2e576119d68582610e1e565b828281518110611a0f577f4e487b7100000000000000000000000000000000000000000000000000000000600052603260045260246000fd5b6020026020010181815250508080611a26906150b2565b9150506119c4565b508092505050919050565b611a41612db8565b73ffffffffffffffffffffffffffffffffffffffff16611a5f611f05565b73ffffffffffffffffffffffffffffffffffffffff1614611ab5576040517f08c379a0000000000000000000000000000000000000000000000000000000008152600401611aac90614c06565b60405180910390fd5b80600e8190555050565b6000611ac9610d93565b8210611b0a576040517f08c379a0000000000000000000000000000000000000000000000000000000008152600401611b0190614ce6565b60405180910390fd5b60088281548110611b44577f4e487b7100000000000000000000000000000000000000000000000000000000600052603260045260246000fd5b90600052602060002001549050919050565b601260019054906101000a900460ff1681565b611b71612db8565b73ffffffffffffffffffffffffffffffffffffffff16611b8f611f05565b73ffffffffffffffffffffffffffffffffffffffff1614611be5576040517f08c379a0000000000000000000000000000000000000000000000000000000008152600401611bdc90614c06565b60405180910390fd5b80600b9080519060200190611bfb929190613e00565b5050565b6000806002600084815260200190815260200160002060009054906101000a900473ffffffffffffffffffffffffffffffffffffffff169050600073ffffffffffffffffffffffffffffffffffffffff168173ffffffffffffffffffffffffffffffffffffffff161415611ca8576040517f08c379a0000000000000000000000000000000000000000000000000000000008152600401611c9f90614b66565b60405180910390fd5b80915050919050565b600b8054611cbe9061504f565b80601f0160208091040260200160405190810160405280929190818152602001828054611cea9061504f565b8015611d375780601f10611d0c57610100808354040283529160200191611d37565b820191906000526020600020905b815481529060010190602001808311611d1a57829003601f168201915b505050505081565b60008073ffffffffffffffffffffffffffffffffffffffff168273ffffffffffffffffffffffffffffffffffffffff161415611db0576040517f08c379a0000000000000000000000000000000000000000000000000000000008152600401611da790614b46565b60405180910390fd5b600360008373ffffffffffffffffffffffffffffffffffffffff1673ffffffffffffffffffffffffffffffffffffffff168152602001908152602001600020549050919050565b611dff612db8565b73ffffffffffffffffffffffffffffffffffffffff16611e1d611f05565b73ffffffffffffffffffffffffffffffffffffffff1614611e73576040517f08c379a0000000000000000000000000000000000000000000000000000000008152600401611e6a90614c06565b60405180910390fd5b611e7d60006131b3565b565b611e87612db8565b73ffffffffffffffffffffffffffffffffffffffff16611ea5611f05565b73ffffffffffffffffffffffffffffffffffffffff1614611efb576040517f08c379a0000000000000000000000000000000000000000000000000000000008152600401611ef290614c06565b60405180910390fd5b8060108190555050565b6000600a60009054906101000a900473ffffffffffffffffffffffffffffffffffffffff16905090565b606060018054611f3e9061504f565b80601f0160208091040260200160405190810160405280929190818152602001828054611f6a9061504f565b8015611fb75780601f10611f8c57610100808354040283529160200191611fb7565b820191906000526020600020905b815481529060010190602001808311611f9a57829003601f168201915b5050505050905090565b601260029054906101000a900460ff1681565b60011515601260009054906101000a900460ff1615151461202a576040517f08c379a000000000000000000000000000000000000000000000000000000000815260040161202190614c26565b60405180910390fd5b6000612034610d93565b905060008211612079576040517f08c379a000000000000000000000000000000000000000000000000000000000815260040161207090614d26565b60405180910390fd5b6010548211156120be576040517f08c379a00000000000000000000000000000000000000000000000000000000081526004016120b590614ba6565b60405180910390fd5b600f5482826120cd9190614e84565b111561210e576040517f08c379a000000000000000000000000000000000000000000000000000000000815260040161210590614b86565b60405180910390fd5b612116611f05565b73ffffffffffffffffffffffffffffffffffffffff163373ffffffffffffffffffffffffffffffffffffffff16146122935760011515601260029054906101000a900460ff16151514156122425761216d33610ec3565b6121ac576040517f08c379a00000000000000000000000000000000000000000000000000000000081526004016121a390614d06565b60405180910390fd5b6000601460003373ffffffffffffffffffffffffffffffffffffffff1673ffffffffffffffffffffffffffffffffffffffff16815260200190815260200160002054905060115483826121ff9190614e84565b1115612240576040517f08c379a000000000000000000000000000000000000000000000000000000000815260040161223790614aa6565b60405180910390fd5b505b81600e546122509190614f0b565b341015612292576040517f08c379a000000000000000000000000000000000000000000000000000000000815260040161228990614ca6565b60405180910390fd5b5b6000600190505b82811161231e57601460003373ffffffffffffffffffffffffffffffffffffffff1673ffffffffffffffffffffffffffffffffffffffff16815260200190815260200160002060008154809291906122f1906150b2565b919050555061230b3382846123069190614e84565b613279565b8080612316906150b2565b91505061229a565b505050565b61232b612db8565b73ffffffffffffffffffffffffffffffffffffffff168273ffffffffffffffffffffffffffffffffffffffff161415612399576040517f08c379a000000000000000000000000000000000000000000000000000000000815260040161239090614ae6565b60405180910390fd5b80600560006123a6612db8565b73ffffffffffffffffffffffffffffffffffffffff1673ffffffffffffffffffffffffffffffffffffffff16815260200190815260200160002060008473ffffffffffffffffffffffffffffffffffffffff1673ffffffffffffffffffffffffffffffffffffffff16815260200190815260200160002060006101000a81548160ff0219169083151502179055508173ffffffffffffffffffffffffffffffffffffffff16612453612db8565b73ffffffffffffffffffffffffffffffffffffffff167f17307eab39ab6107e8899845ad3d59bd9653f200f220920489ca2b5937696c318360405161249891906149e9565b60405180910390a35050565b6124ac612db8565b73ffffffffffffffffffffffffffffffffffffffff166124ca611f05565b73ffffffffffffffffffffffffffffffffffffffff1614612520576040517f08c379a000000000000000000000000000000000000000000000000000000000815260040161251790614c06565b60405180910390fd5b6001601260016101000a81548160ff021916908315150217905550565b61254e612548612db8565b83612e79565b61258d576040517f08c379a000000000000000000000000000000000000000000000000000000000815260040161258490614cc6565b60405180910390fd5b61259984848484613297565b50505050565b601381815481106125af57600080fd5b906000526020600020016000915054906101000a900473ffffffffffffffffffffffffffffffffffffffff1681565b60115481565b600c80546125f19061504f565b80601f016020809104026020016040519081016040528092919081815260200182805461261d9061504f565b801561266a5780601f1061263f5761010080835404028352916020019161266a565b820191906000526020600020905b81548152906001019060200180831161264d57829003601f168201915b505050505081565b606061267d82612d4c565b6126bc576040517f08c379a00000000000000000000000000000000000000000000000000000000081526004016126b390614c66565b60405180910390fd5b60001515601260019054906101000a900460ff161515141561276a57600d80546126e59061504f565b80601f01602080910402602001604051908101604052809291908181526020018280546127119061504f565b801561275e5780601f106127335761010080835404028352916020019161275e565b820191906000526020600020905b81548152906001019060200180831161274157829003601f168201915b505050505090506127c6565b60006127746132f3565b9050600081511161279457604051806020016040528060008152506127c2565b8061279e84613385565b600c6040516020016127b29392919061491a565b6040516020818303038152906040525b9150505b919050565b6127d3612db8565b73ffffffffffffffffffffffffffffffffffffffff166127f1611f05565b73ffffffffffffffffffffffffffffffffffffffff1614612847576040517f08c379a000000000000000000000000000000000000000000000000000000000815260040161283e90614c06565b60405180910390fd5b8060118190555050565b600f5481565b61285f612db8565b73ffffffffffffffffffffffffffffffffffffffff1661287d611f05565b73ffffffffffffffffffffffffffffffffffffffff16146128d3576040517f08c379a00000000000000000000000000000000000000000000000000000000081526004016128ca90614c06565b60405180910390fd5b80600c90805190602001906128e9929190613e00565b5050565b6128f5612db8565b73ffffffffffffffffffffffffffffffffffffffff16612913611f05565b73ffffffffffffffffffffffffffffffffffffffff1614612969576040517f08c379a000000000000000000000000000000000000000000000000000000000815260040161296090614c06565b60405180910390fd5b601260009054906101000a900460ff1615601260006101000a81548160ff021916908315150217905550565b6000600560008473ffffffffffffffffffffffffffffffffffffffff1673ffffffffffffffffffffffffffffffffffffffff16815260200190815260200160002060008373ffffffffffffffffffffffffffffffffffffffff1673ffffffffffffffffffffffffffffffffffffffff16815260200190815260200160002060009054906101000a900460ff16905092915050565b601260009054906101000a900460ff1681565b612a44612db8565b73ffffffffffffffffffffffffffffffffffffffff16612a62611f05565b73ffffffffffffffffffffffffffffffffffffffff1614612ab8576040517f08c379a0000000000000000000000000000000000000000000000000000000008152600401612aaf90614c06565b60405180910390fd5b60136000612ac69190613e86565b818160139190612ad7929190613ea7565b505050565b612ae4612db8565b73ffffffffffffffffffffffffffffffffffffffff16612b02611f05565b73ffffffffffffffffffffffffffffffffffffffff1614612b58576040517f08c379a0000000000000000000000000000000000000000000000000000000008152600401612b4f90614c06565b60405180910390fd5b80600d9080519060200190612b6e929190613e00565b5050565b612b7a612db8565b73ffffffffffffffffffffffffffffffffffffffff16612b98611f05565b73ffffffffffffffffffffffffffffffffffffffff1614612bee576040517f08c379a0000000000000000000000000000000000000000000000000000000008152600401612be590614c06565b60405180910390fd5b600073ffffffffffffffffffffffffffffffffffffffff168173ffffffffffffffffffffffffffffffffffffffff161415612c5e576040517f08c379a0000000000000000000000000000000000000000000000000000000008152600401612c5590614a66565b60405180910390fd5b612c67816131b3565b50565b60007f80ac58cd000000000000000000000000000000000000000000000000000000007bffffffffffffffffffffffffffffffffffffffffffffffffffffffff1916827bffffffffffffffffffffffffffffffffffffffffffffffffffffffff19161480612d3557507f5b5e139f000000000000000000000000000000000000000000000000000000007bffffffffffffffffffffffffffffffffffffffffffffffffffffffff1916827bffffffffffffffffffffffffffffffffffffffffffffffffffffffff1916145b80612d455750612d4482613532565b5b9050919050565b60008073ffffffffffffffffffffffffffffffffffffffff166002600084815260200190815260200160002060009054906101000a900473ffffffffffffffffffffffffffffffffffffffff1673ffffffffffffffffffffffffffffffffffffffff1614159050919050565b600033905090565b816004600083815260200190815260200160002060006101000a81548173ffffffffffffffffffffffffffffffffffffffff021916908373ffffffffffffffffffffffffffffffffffffffff160217905550808273ffffffffffffffffffffffffffffffffffffffff16612e3383611bff565b73ffffffffffffffffffffffffffffffffffffffff167f8c5be1e5ebec7d5bd14f71427d1e84f3dd0314c0f7b2291e5b200ac8c7c3b92560405160405180910390a45050565b6000612e8482612d4c565b612ec3576040517f08c379a0000000000000000000000000000000000000000000000000000000008152600401612eba90614b06565b60405180910390fd5b6000612ece83611bff565b90508073ffffffffffffffffffffffffffffffffffffffff168473ffffffffffffffffffffffffffffffffffffffff161480612f3d57508373ffffffffffffffffffffffffffffffffffffffff16612f2584610b62565b73ffffffffffffffffffffffffffffffffffffffff16145b80612f4e5750612f4d8185612995565b5b91505092915050565b8273ffffffffffffffffffffffffffffffffffffffff16612f7782611bff565b73ffffffffffffffffffffffffffffffffffffffff1614612fcd576040517f08c379a0000000000000000000000000000000000000000000000000000000008152600401612fc490614c46565b60405180910390fd5b600073ffffffffffffffffffffffffffffffffffffffff168273ffffffffffffffffffffffffffffffffffffffff16141561303d576040517f08c379a000000000000000000000000000000000000000000000000000000000815260040161303490614ac6565b60405180910390fd5b61304883838361359c565b613053600082612dc0565b6001600360008573ffffffffffffffffffffffffffffffffffffffff1673ffffffffffffffffffffffffffffffffffffffff16815260200190815260200160002060008282546130a39190614f65565b925050819055506001600360008473ffffffffffffffffffffffffffffffffffffffff1673ffffffffffffffffffffffffffffffffffffffff16815260200190815260200160002060008282546130fa9190614e84565b92505081905550816002600083815260200190815260200160002060006101000a81548173ffffffffffffffffffffffffffffffffffffffff021916908373ffffffffffffffffffffffffffffffffffffffff160217905550808273ffffffffffffffffffffffffffffffffffffffff168473ffffffffffffffffffffffffffffffffffffffff167fddf252ad1be2c89b69c2b068fc378daa952ba7f163c4a11628f55a4df523b3ef60405160405180910390a4505050565b6000600a60009054906101000a900473ffffffffffffffffffffffffffffffffffffffff16905081600a60006101000a81548173ffffffffffffffffffffffffffffffffffffffff021916908373ffffffffffffffffffffffffffffffffffffffff1602179055508173ffffffffffffffffffffffffffffffffffffffff168173ffffffffffffffffffffffffffffffffffffffff167f8be0079c531659141344cd1fd0a4f28419497f9722a3daafe3b4186f6b6457e060405160405180910390a35050565b6132938282604051806020016040528060008152506136b0565b5050565b6132a2848484612f57565b6132ae8484848461370b565b6132ed576040517f08c379a00000000000000000000000000000000000000000000000000000000081526004016132e490614a46565b60405180910390fd5b50505050565b6060600b80546133029061504f565b80601f016020809104026020016040519081016040528092919081815260200182805461332e9061504f565b801561337b5780601f106133505761010080835404028352916020019161337b565b820191906000526020600020905b81548152906001019060200180831161335e57829003601f168201915b5050505050905090565b606060008214156133cd576040518060400160405280600181526020017f3000000000000000000000000000000000000000000000000000000000000000815250905061352d565b600082905060005b600082146133ff5780806133e8906150b2565b915050600a826133f89190614eda565b91506133d5565b60008167ffffffffffffffff811115613441577f4e487b7100000000000000000000000000000000000000000000000000000000600052604160045260246000fd5b6040519080825280601f01601f1916602001820160405280156134735781602001600182028036833780820191505090505b5090505b600085146135265760018261348c9190614f65565b9150600a8561349b91906150fb565b60306134a79190614e84565b60f81b8183815181106134e3577f4e487b7100000000000000000000000000000000000000000000000000000000600052603260045260246000fd5b60200101907effffffffffffffffffffffffffffffffffffffffffffffffffffffffffffff1916908160001a905350600a8561351f9190614eda565b9450613477565b8093505050505b919050565b60007f01ffc9a7000000000000000000000000000000000000000000000000000000007bffffffffffffffffffffffffffffffffffffffffffffffffffffffff1916827bffffffffffffffffffffffffffffffffffffffffffffffffffffffff1916149050919050565b6135a78383836138a2565b600073ffffffffffffffffffffffffffffffffffffffff168373ffffffffffffffffffffffffffffffffffffffff1614156135ea576135e5816138a7565b613629565b8173ffffffffffffffffffffffffffffffffffffffff168373ffffffffffffffffffffffffffffffffffffffff16146136285761362783826138f0565b5b5b600073ffffffffffffffffffffffffffffffffffffffff168273ffffffffffffffffffffffffffffffffffffffff16141561366c5761366781613a5d565b6136ab565b8273ffffffffffffffffffffffffffffffffffffffff168273ffffffffffffffffffffffffffffffffffffffff16146136aa576136a98282613ba0565b5b5b505050565b6136ba8383613c1f565b6136c7600084848461370b565b613706576040517f08c379a00000000000000000000000000000000000000000000000000000000081526004016136fd90614a46565b60405180910390fd5b505050565b600061372c8473ffffffffffffffffffffffffffffffffffffffff16613ded565b15613895578373ffffffffffffffffffffffffffffffffffffffff1663150b7a02613755612db8565b8786866040518563ffffffff1660e01b8152600401613777949392919061497b565b602060405180830381600087803b15801561379157600080fd5b505af19250505080156137c257506040513d601f19601f820116820180604052508101906137bf9190614325565b60015b613845573d80600081146137f2576040519150601f19603f3d011682016040523d82523d6000602084013e6137f7565b606091505b5060008151141561383d576040517f08c379a000000000000000000000000000000000000000000000000000000000815260040161383490614a46565b60405180910390fd5b805181602001fd5b63150b7a0260e01b7bffffffffffffffffffffffffffffffffffffffffffffffffffffffff1916817bffffffffffffffffffffffffffffffffffffffffffffffffffffffff19161491505061389a565b600190505b949350505050565b505050565b6008805490506009600083815260200190815260200160002081905550600881908060018154018082558091505060019003906000526020600020016000909190919091505550565b600060016138fd84611d3f565b6139079190614f65565b90506000600760008481526020019081526020016000205490508181146139ec576000600660008673ffffffffffffffffffffffffffffffffffffffff1673ffffffffffffffffffffffffffffffffffffffff168152602001908152602001600020600084815260200190815260200160002054905080600660008773ffffffffffffffffffffffffffffffffffffffff1673ffffffffffffffffffffffffffffffffffffffff168152602001908152602001600020600084815260200190815260200160002081905550816007600083815260200190815260200160002081905550505b6007600084815260200190815260200160002060009055600660008573ffffffffffffffffffffffffffffffffffffffff1673ffffffffffffffffffffffffffffffffffffffff16815260200190815260200160002060008381526020019081526020016000206000905550505050565b60006001600880549050613a719190614f65565b9050600060096000848152602001908152602001600020549050600060088381548110613ac7577f4e487b7100000000000000000000000000000000000000000000000000000000600052603260045260246000fd5b906000526020600020015490508060088381548110613b0f577f4e487b7100000000000000000000000000000000000000000000000000000000600052603260045260246000fd5b906000526020600020018190555081600960008381526020019081526020016000208190555060096000858152602001908152602001600020600090556008805480613b84577f4e487b7100000000000000000000000000000000000000000000000000000000600052603160045260246000fd5b6001900381819060005260206000200160009055905550505050565b6000613bab83611d3f565b905081600660008573ffffffffffffffffffffffffffffffffffffffff1673ffffffffffffffffffffffffffffffffffffffff168152602001908152602001600020600083815260200190815260200160002081905550806007600084815260200190815260200160002081905550505050565b600073ffffffffffffffffffffffffffffffffffffffff168273ffffffffffffffffffffffffffffffffffffffff161415613c8f576040517f08c379a0000000000000000000000000000000000000000000000000000000008152600401613c8690614bc6565b60405180910390fd5b613c9881612d4c565b15613cd8576040517f08c379a0000000000000000000000000000000000000000000000000000000008152600401613ccf90614a86565b60405180910390fd5b613ce46000838361359c565b6001600360008473ffffffffffffffffffffffffffffffffffffffff1673ffffffffffffffffffffffffffffffffffffffff1681526020019081526020016000206000828254613d349190614e84565b92505081905550816002600083815260200190815260200160002060006101000a81548173ffffffffffffffffffffffffffffffffffffffff021916908373ffffffffffffffffffffffffffffffffffffffff160217905550808273ffffffffffffffffffffffffffffffffffffffff16600073ffffffffffffffffffffffffffffffffffffffff167fddf252ad1be2c89b69c2b068fc378daa952ba7f163c4a11628f55a4df523b3ef60405160405180910390a45050565b600080823b905060008111915050919050565b828054613e0c9061504f565b90600052602060002090601f016020900481019282613e2e5760008555613e75565b82601f10613e4757805160ff1916838001178555613e75565b82800160010185558215613e75579182015b82811115613e74578251825591602001919060010190613e59565b5b509050613e829190613f47565b5090565b5080546000825590600052602060002090810190613ea49190613f47565b50565b828054828255906000526020600020908101928215613f36579160200282015b82811115613f3557823573ffffffffffffffffffffffffffffffffffffffff168260006101000a81548173ffffffffffffffffffffffffffffffffffffffff021916908373ffffffffffffffffffffffffffffffffffffffff16021790555091602001919060010190613ec7565b5b509050613f439190613f47565b5090565b5b80821115613f60576000816000905550600101613f48565b5090565b6000613f77613f7284614d86565b614d61565b905082815260208101848484011115613f8f57600080fd5b613f9a84828561500d565b509392505050565b6000613fb5613fb084614db7565b614d61565b905082815260208101848484011115613fcd57600080fd5b613fd884828561500d565b509392505050565b600081359050613fef81615837565b92915050565b60008083601f84011261400757600080fd5b8235905067ffffffffffffffff81111561402057600080fd5b60208301915083602082028301111561403857600080fd5b9250929050565b60008135905061404e8161584e565b92915050565b60008135905061406381615865565b92915050565b60008151905061407881615865565b92915050565b600082601f83011261408f57600080fd5b813561409f848260208601613f64565b91505092915050565b600082601f8301126140b957600080fd5b81356140c9848260208601613fa2565b91505092915050565b6000813590506140e18161587c565b92915050565b6000602082840312156140f957600080fd5b600061410784828501613fe0565b91505092915050565b6000806040838503121561412357600080fd5b600061413185828601613fe0565b925050602061414285828601613fe0565b9150509250929050565b60008060006060848603121561416157600080fd5b600061416f86828701613fe0565b935050602061418086828701613fe0565b9250506040614191868287016140d2565b9150509250925092565b600080600080608085870312156141b157600080fd5b60006141bf87828801613fe0565b94505060206141d087828801613fe0565b93505060406141e1878288016140d2565b925050606085013567ffffffffffffffff8111156141fe57600080fd5b61420a8782880161407e565b91505092959194509250565b6000806040838503121561422957600080fd5b600061423785828601613fe0565b92505060206142488582860161403f565b9150509250929050565b6000806040838503121561426557600080fd5b600061427385828601613fe0565b9250506020614284858286016140d2565b9150509250929050565b600080602083850312156142a157600080fd5b600083013567ffffffffffffffff8111156142bb57600080fd5b6142c785828601613ff5565b92509250509250929050565b6000602082840312156142e557600080fd5b60006142f38482850161403f565b91505092915050565b60006020828403121561430e57600080fd5b600061431c84828501614054565b91505092915050565b60006020828403121561433757600080fd5b600061434584828501614069565b91505092915050565b60006020828403121561436057600080fd5b600082013567ffffffffffffffff81111561437a57600080fd5b614386848285016140a8565b91505092915050565b6000602082840312156143a157600080fd5b60006143af848285016140d2565b91505092915050565b60006143c483836148fc565b60208301905092915050565b6143d981614f99565b82525050565b60006143ea82614e0d565b6143f48185614e3b565b93506143ff83614de8565b8060005b8381101561443057815161441788826143b8565b975061442283614e2e565b925050600181019050614403565b5085935050505092915050565b61444681614fab565b82525050565b600061445782614e18565b6144618185614e4c565b935061447181856020860161501c565b61447a816151e8565b840191505092915050565b600061449082614e23565b61449a8185614e68565b93506144aa81856020860161501c565b6144b3816151e8565b840191505092915050565b60006144c982614e23565b6144d38185614e79565b93506144e381856020860161501c565b80840191505092915050565b600081546144fc8161504f565b6145068186614e79565b94506001821660008114614521576001811461453257614565565b60ff19831686528186019350614565565b61453b85614df8565b60005b8381101561455d5781548189015260018201915060208101905061453e565b838801955050505b50505092915050565b600061457b602b83614e68565b9150614586826151f9565b604082019050919050565b600061459e603283614e68565b91506145a982615248565b604082019050919050565b60006145c1602683614e68565b91506145cc82615297565b604082019050919050565b60006145e4601c83614e68565b91506145ef826152e6565b602082019050919050565b6000614607601c83614e68565b91506146128261530f565b602082019050919050565b600061462a602483614e68565b915061463582615338565b604082019050919050565b600061464d601983614e68565b915061465882615387565b602082019050919050565b6000614670602c83614e68565b915061467b826153b0565b604082019050919050565b6000614693603883614e68565b915061469e826153ff565b604082019050919050565b60006146b6602a83614e68565b91506146c18261544e565b604082019050919050565b60006146d9602983614e68565b91506146e48261549d565b604082019050919050565b60006146fc601683614e68565b9150614707826154ec565b602082019050919050565b600061471f602483614e68565b915061472a82615515565b604082019050919050565b6000614742602083614e68565b915061474d82615564565b602082019050919050565b6000614765602c83614e68565b91506147708261558d565b604082019050919050565b6000614788602083614e68565b9150614793826155dc565b602082019050919050565b60006147ab601683614e68565b91506147b682615605565b602082019050919050565b60006147ce602983614e68565b91506147d98261562e565b604082019050919050565b60006147f1602f83614e68565b91506147fc8261567d565b604082019050919050565b6000614814602183614e68565b915061481f826156cc565b604082019050919050565b6000614837600083614e5d565b91506148428261571b565b600082019050919050565b600061485a601283614e68565b91506148658261571e565b602082019050919050565b600061487d603183614e68565b915061488882615747565b604082019050919050565b60006148a0602c83614e68565b91506148ab82615796565b604082019050919050565b60006148c3601783614e68565b91506148ce826157e5565b602082019050919050565b60006148e6601b83614e68565b91506148f18261580e565b602082019050919050565b61490581615003565b82525050565b61491481615003565b82525050565b600061492682866144be565b915061493282856144be565b915061493e82846144ef565b9150819050949350505050565b60006149568261482a565b9150819050919050565b600060208201905061497560008301846143d0565b92915050565b600060808201905061499060008301876143d0565b61499d60208301866143d0565b6149aa604083018561490b565b81810360608301526149bc818461444c565b905095945050505050565b600060208201905081810360008301526149e181846143df565b905092915050565b60006020820190506149fe600083018461443d565b92915050565b60006020820190508181036000830152614a1e8184614485565b905092915050565b60006020820190508181036000830152614a3f8161456e565b9050919050565b60006020820190508181036000830152614a5f81614591565b9050919050565b60006020820190508181036000830152614a7f816145b4565b9050919050565b60006020820190508181036000830152614a9f816145d7565b9050919050565b60006020820190508181036000830152614abf816145fa565b9050919050565b60006020820190508181036000830152614adf8161461d565b9050919050565b60006020820190508181036000830152614aff81614640565b9050919050565b60006020820190508181036000830152614b1f81614663565b9050919050565b60006020820190508181036000830152614b3f81614686565b9050919050565b60006020820190508181036000830152614b5f816146a9565b9050919050565b60006020820190508181036000830152614b7f816146cc565b9050919050565b60006020820190508181036000830152614b9f816146ef565b9050919050565b60006020820190508181036000830152614bbf81614712565b9050919050565b60006020820190508181036000830152614bdf81614735565b9050919050565b60006020820190508181036000830152614bff81614758565b9050919050565b60006020820190508181036000830152614c1f8161477b565b9050919050565b60006020820190508181036000830152614c3f8161479e565b9050919050565b60006020820190508181036000830152614c5f816147c1565b9050919050565b60006020820190508181036000830152614c7f816147e4565b9050919050565b60006020820190508181036000830152614c9f81614807565b9050919050565b60006020820190508181036000830152614cbf8161484d565b9050919050565b60006020820190508181036000830152614cdf81614870565b9050919050565b60006020820190508181036000830152614cff81614893565b9050919050565b60006020820190508181036000830152614d1f816148b6565b9050919050565b60006020820190508181036000830152614d3f816148d9565b9050919050565b6000602082019050614d5b600083018461490b565b92915050565b6000614d6b614d7c565b9050614d778282615081565b919050565b6000604051905090565b600067ffffffffffffffff821115614da157614da06151b9565b5b614daa826151e8565b9050602081019050919050565b600067ffffffffffffffff821115614dd257614dd16151b9565b5b614ddb826151e8565b9050602081019050919050565b6000819050602082019050919050565b60008190508160005260206000209050919050565b600081519050919050565b600081519050919050565b600081519050919050565b6000602082019050919050565b600082825260208201905092915050565b600082825260208201905092915050565b600081905092915050565b600082825260208201905092915050565b600081905092915050565b6000614e8f82615003565b9150614e9a83615003565b9250827fffffffffffffffffffffffffffffffffffffffffffffffffffffffffffffffff03821115614ecf57614ece61512c565b5b828201905092915050565b6000614ee582615003565b9150614ef083615003565b925082614f0057614eff61515b565b5b828204905092915050565b6000614f1682615003565b9150614f2183615003565b9250817fffffffffffffffffffffffffffffffffffffffffffffffffffffffffffffffff0483118215151615614f5a57614f5961512c565b5b828202905092915050565b6000614f7082615003565b9150614f7b83615003565b925082821015614f8e57614f8d61512c565b5b828203905092915050565b6000614fa482614fe3565b9050919050565b60008115159050919050565b60007fffffffff0000000000000000000000000000000000000000000000000000000082169050919050565b600073ffffffffffffffffffffffffffffffffffffffff82169050919050565b6000819050919050565b82818337600083830152505050565b60005b8381101561503a57808201518184015260208101905061501f565b83811115615049576000848401525b50505050565b6000600282049050600182168061506757607f821691505b6020821081141561507b5761507a61518a565b5b50919050565b61508a826151e8565b810181811067ffffffffffffffff821117156150a9576150a86151b9565b5b80604052505050565b60006150bd82615003565b91507fffffffffffffffffffffffffffffffffffffffffffffffffffffffffffffffff8214156150f0576150ef61512c565b5b600182019050919050565b600061510682615003565b915061511183615003565b9250826151215761512061515b565b5b828206905092915050565b7f4e487b7100000000000000000000000000000000000000000000000000000000600052601160045260246000fd5b7f4e487b7100000000000000000000000000000000000000000000000000000000600052601260045260246000fd5b7f4e487b7100000000000000000000000000000000000000000000000000000000600052602260045260246000fd5b7f4e487b7100000000000000000000000000000000000000000000000000000000600052604160045260246000fd5b6000601f19601f8301169050919050565b7f455243373231456e756d657261626c653a206f776e657220696e646578206f7560008201527f74206f6620626f756e6473000000000000000000000000000000000000000000602082015250565b7f4552433732313a207472616e7366657220746f206e6f6e20455243373231526560008201527f63656976657220696d706c656d656e7465720000000000000000000000000000602082015250565b7f4f776e61626c653a206e6577206f776e657220697320746865207a65726f206160008201527f6464726573730000000000000000000000000000000000000000000000000000602082015250565b7f4552433732313a20746f6b656e20616c7265616479206d696e74656400000000600082015250565b7f6d6178204e465420706572206164647265737320657863656564656400000000600082015250565b7f4552433732313a207472616e7366657220746f20746865207a65726f2061646460008201527f7265737300000000000000000000000000000000000000000000000000000000602082015250565b7f4552433732313a20617070726f766520746f2063616c6c657200000000000000600082015250565b7f4552433732313a206f70657261746f7220717565727920666f72206e6f6e657860008201527f697374656e7420746f6b656e0000000000000000000000000000000000000000602082015250565b7f4552433732313a20617070726f76652063616c6c6572206973206e6f74206f7760008201527f6e6572206e6f7220617070726f76656420666f7220616c6c0000000000000000602082015250565b7f4552433732313a2062616c616e636520717565727920666f7220746865207a6560008201527f726f206164647265737300000000000000000000000000000000000000000000602082015250565b7f4552433732313a206f776e657220717565727920666f72206e6f6e657869737460008201527f656e7420746f6b656e0000000000000000000000000000000000000000000000602082015250565b7f6d6178204e4654206c696d697420657863656564656400000000000000000000600082015250565b7f6d6178206d696e7420616d6f756e74207065722073657373696f6e206578636560008201527f6564656400000000000000000000000000000000000000000000000000000000602082015250565b7f4552433732313a206d696e7420746f20746865207a65726f2061646472657373600082015250565b7f4552433732313a20617070726f76656420717565727920666f72206e6f6e657860008201527f697374656e7420746f6b656e0000000000000000000000000000000000000000602082015250565b7f4f776e61626c653a2063616c6c6572206973206e6f7420746865206f776e6572600082015250565b7f74686520636f6e74726163742069732070617573656400000000000000000000600082015250565b7f4552433732313a207472616e73666572206f6620746f6b656e2074686174206960008201527f73206e6f74206f776e0000000000000000000000000000000000000000000000602082015250565b7f4552433732314d657461646174613a2055524920717565727920666f72206e6f60008201527f6e6578697374656e7420746f6b656e0000000000000000000000000000000000602082015250565b7f4552433732313a20617070726f76616c20746f2063757272656e74206f776e6560008201527f7200000000000000000000000000000000000000000000000000000000000000602082015250565b50565b7f696e73756666696369656e742066756e64730000000000000000000000000000600082015250565b7f4552433732313a207472616e736665722063616c6c6572206973206e6f74206f60008201527f776e6572206e6f7220617070726f766564000000000000000000000000000000602082015250565b7f455243373231456e756d657261626c653a20676c6f62616c20696e646578206f60008201527f7574206f6620626f756e64730000000000000000000000000000000000000000602082015250565b7f75736572206973206e6f742077686974656c6973746564000000000000000000600082015250565b7f6e65656420746f206d696e74206174206c656173742031204e46540000000000600082015250565b61584081614f99565b811461584b57600080fd5b50565b61585781614fab565b811461586257600080fd5b50565b61586e81614fb7565b811461587957600080fd5b50565b61588581615003565b811461589057600080fd5b5056fea26469706673582212200e1569fb8a7eb5e22df030a04e8da97be0067d247112ed6066e301f754c31e5164736f6c63430008040033",
  "linkReferences": {},
  "deployedLinkReferences": {}
}